:100000000C948E000C94B6000C94B6000C94B600C0
:100010000C94B6000C94B6000C94B6000C94B60088
:100020000C94B6000C94B6000C94B6000C94B60078
:100030000C94B6000C94B6000C94B6000C94B60068
:100040000C9486030C94B6000C945D050C94370553
:100050000C94B6000C94B6000C94B6000C94B60048
:100060000C94B6000C94B600250048756D6964695F
:1000700074793A20004572726F722072656164690A
:100080006E672068756D69646974792100C2B04338
:100090000054656D70657261747572653A20004533
:1000A00072726F722072656164696E672074656D2B
:1000B000706572617475726521002500204300002F
:1000C000000000240027002A00000000002500286E
:1000D000002B0000000008000201000003040700DC
:1000E000000000000000000000000023002600299E
:1000F00000040404040404040402020202020203D1
:1001000003030303030102040810204080010204DA
:1001100008102001020408102000BF0D11241FBE8A
:10012000CFEFD8E0DEBFCDBF11E0A0E0B1E0E4EB5F
:10013000F4E202C005900D92A43CB107D9F722E089
:10014000A4ECB1E001C01D92AD3CB207E1F710E0B4
:10015000CEE8D0E004C02197FE010E94CB0ECD383E
:10016000D107C9F70E94740A0C9458120C9400002D
:10017000CF92DF92EF92FF920F931F93CF93DF9373
:100180006C017A018B01C0E0D0E0CE15DF0581F073
:10019000D8016D918D01D601ED91FC910190F08116
:1001A000E02DC6010995892B11F02196EECF7E0135
:1001B000C701DF91CF911F910F91FF90EF90DF90DA
:1001C000CF900895089580E090E008950895CF932A
:1001D000DF93EC0160E08E810E94BB0761E08E81BD
:1001E0000E94BB0760E08E810E94BB078BE891E014
:1001F0000197F1F7DF91CF9108950E94441289EDA4
:1002000091E00E94850621E0892B09F420E0822FED
:1002100008950F931F93CF93DF938C01EB0188E236
:10022000DB011D928A95E9F7F801838194810E9490
:10023000B80681E090E0A0E0B0E08C879D87AE87B3
:10024000BF87F80185819681A781B085888B998BBE
:10025000AA8BBB8B8CE090E0A0E0B0E08C8B9D8BF8
:10026000AE8BBF8BBE01838194810E94A106D80111
:100270001396ED91FC91149783898C3069F038F4D2
:100280008B30A1F580E090E0A0EAB2E409C08531AE
:10029000C1F08631B1F02AC080E090E0AEEBB2E46C
:1002A000888F998FAA8FBB8F80E090E0A0EAB1E49D
:1002B0008C8F9D8FAE8FBF8F80E090E0A0EAB0E47E
:1002C00010C080E090E0A8ECB2E4888F998FAA8FEC
:1002D000BB8F1C8E1D8E1E8E1F8E8DEC9CECACEC8D
:1002E000BDE388A399A3AAA3BBA30CC0188E198E43
:1002F0001A8E1B8E1C8E1D8E1E8E1F8E18A219A28A
:100300001AA21BA2DF91CF911F910F9108950F9315
:100310001F93CF93DF938C01EB0188E2DB011D92E9
:100320008A95E9F7F801838194810E94B80681E0FB
:1003300090E0A0E0B0E08C879D87AE87BF87F80192
:1003400085819681A781B085888B998BAA8BBB8B81
:100350008DE090E0A0E0B0E08C8B9D8BAE8BBF8BEE
:10036000BE01838194810E94A106D8011396ED916C
:10037000FC91149783898C30F1F0A0F48B3009F054
:1003800048C080E090E0A8E4B2E4888F998FAA8FFB
:10039000BB8F1C8E1D8E1E8E1F8E80E090E0A0E015
:1003A000B0E432C08531E1F0863199F580E090E02B
:1003B000AAEFB2E419C080E090E0A0E7B2E4888F31
:1003C000998FAA8FBB8F80E090E0A0EAB1EC8C8F70
:1003D0009D8FAE8FBF8F80E090E0A0E0BFE314C0A0
:1003E00080E090E0A0EAB2E4888F998FAA8FBB8F5B
:1003F00080E090E0A0E2B2EC8C8F9D8FAE8FBF8F3B
:100400008DEC9CECACECBDE388A399A3AAA3BBA3A1
:100410000CC0188E198E1A8E1B8E1C8E1D8E1E8E71
:100420001F8E18A219A21AA21BA2DF91CF911F91B1
:100430000F910895CF92DF92EF92FF920F931F9347
:10044000CF93DF93EB0124E2FB0111922A95E9F7A8
:1004500044E250E060E070E0488359836A837B8324
:10046000FC0145815681678170854C835D836E8375
:100470007F834CE050E060E070E0488759876A87EE
:100480007B872FB7F8944091D5015091D6016091A8
:10049000D7017091D8012FBF488B598B6A8B7B8B0A
:1004A00003811481C8010E9424098823B9F1F8014D
:1004B00086818B3098F18D30A0F08551823070F5B7
:1004C000F8016081718176276727762780E090E0C8
:1004D0000E94FA0F2DEC3CEC4CEC5DE30E94B11055
:1004E00021C0F801618170E080E090E00E94FC0F83
:1004F0002DEC3CEC4CEC5DE30E94B1106B017C01F7
:10050000F801608170E080E090E00E94FC0F9B01A8
:10051000AC01C701B6010E94E10E04C060E070E0CA
:1005200080EC9FE76C8B7D8B8E8B9F8B81E0DF91C6
:10053000CF911F910F91FF90EF90DF90CF90089592
:100540008F929F92AF92BF92EF92FF921F93CF93A1
:10055000DF93EB0124E2FB0111922A95E9F744E2D3
:1005600050E060E070E0488359836A837B83FC013C
:1005700045815681678170854C835D836E837F835F
:100580004DE050E060E070E0488759876A877B87DC
:100590002FB7F8944091D5015091D6016091D701C1
:1005A0007091D8012FBF488B598B6A8B7B8BE3806E
:1005B000F480C7010E942409882309F46BC0F70165
:1005C00086818C3009F445C018F48B30C9F062C0C4
:1005D0008551823008F05EC0F7011281612F6F777C
:1005E00070E0762F66278381682B80E090E00E9480
:1005F000FA0F2DEC3CEC4CEC5DE30E94B11046C0D0
:10060000F701628170E080E090E00E94FA0F4B01F8
:100610005C01F701138117FF0AC09B01AC0160E088
:1006200070E080E89FEB0E94E00E4B015C01612FBF
:100630006F7070E080E090E00E94FC0F2DEC3CECCD
:100640004CEC5DE30E94B110A50194010E94E10E03
:1006500025C0F701128163816F7070E080E090E047
:100660000E94FC0F2DEC3CEC4CEC5DE30E94B110C1
:100670004B015C01612F70E080E090E00E94FA0F76
:100680009B01AC01C501B4010E94E10E17FF06C039
:10069000905804C060E070E080EC9FE76C8B7D8B2D
:1006A0008E8B9F8B81E0DF91CF911F91FF90EF9018
:1006B000BF90AF909F908F9008950C94BB110C94B5
:1006C000BB113FB7F8948091D1019091D201A091D4
:1006D000D301B091D40126B5A89B05C02F3F19F0D6
:1006E0000196A11DB11D3FBFBA2FA92F982F8827B2
:1006F000820F911DA11DB11DBC01CD0142E0660F0D
:10070000771F881F991F4A95D1F708951F920F925E
:100710000FB60F9211242F933F938F939F93AF9314
:10072000BF938091D5019091D601A091D701B0914E
:10073000D8013091D00123E0230F2D3720F401960A
:10074000A11DB11D05C026E8230F0296A11DB11DF4
:100750002093D0018093D5019093D601A093D70127
:10076000B093D8018091D1019091D201A091D30191
:10077000B091D4010196A11DB11D8093D101909338
:10078000D201A093D301B093D401BF91AF919F91B7
:100790008F913F912F910F900FBE0F901F90189542
:1007A000DC01ED91FC910190F081E02D0994EF9234
:1007B000FF920F931F93CF93DF938C017B01C0E0D7
:1007C000D0E0F701EC0FFD1F6491662361F0D801C2
:1007D000ED91FC910190F081E02DC8010995892BE4
:1007E00011F02196EECFCE01DF91CF911F910F91A5
:1007F000FF90EF9008956115710579F0FB0101906C
:100800000020E9F73197AF01461B570BDC01ED9152
:10081000FC910280F381E02D099480E090E008953E
:100820008F929F92AF92BF92EF92FF920F931F937E
:10083000CF93DF93CDB7DEB7A1970FB6F894DEBFA5
:100840000FBECDBF7C01FA01CB0119A2223008F402
:100850002AE08E010F5D1F4F822E912CA12CB12C0E
:10086000BF01A50194010E947F0EF901CA01015048
:1008700011096A3014F4605D01C0695CD8016C93A1
:10088000232B242B252B61F7B801C7010E94FB0302
:10089000A1960FB6F894DEBF0FBECDBFDF91CF910A
:1008A0001F910F91FF90EF90BF90AF909F908F900E
:1008B00008957F928F929F92AF92BF92CF92DF92D4
:1008C000EF92FF920F931F93CF93DF938C016A01F6
:1008D0007B01722E9A01AB01C701B6010E941E1165
:1008E000882319F06CE571E027C046015701E894B0
:1008F000B7F82FEF3FEF4FE75FE7C501B4010E9464
:100900001E1181110DC02FEF3FEF4FE75FE7C501CB
:10091000B4010E944D0F18161CF460E671E00CC083
:100920002FEF3FEF4FE75FE4C701B6010E94AC1025
:10093000181694F464E671E0C801DF91CF911F911D
:100940000F91FF90EF90DF90CF90BF90AF909F906E
:100950008F907F900C94FB032FEF3FEF4FE75FECFE
:10096000C701B6010E944D0F87FDE4CF20E030E0C3
:10097000A901C701B6010E944D0F87FF0AC06DE2B1
:10098000C8010E94D003EC01F7FAF094F7F8F09454
:1009900002C0C0E0D0E0B12C60E070E080E09FE3F6
:1009A0007B1441F020E030E040E251E40E94520F1D
:1009B000B394F6CFA70196010E94E10E6B017C0172
:1009C0000E94CB0F4B015C012AE0AB01BC01C801C6
:1009D0000E941004C80FD91F7720C1F1C501B401CE
:1009E0000E94FA0F9B01AC01C701B6010E94E00E04
:1009F0006B017C016EE2C8010E94D003C80FD91FB1
:100A000020E030E040E251E4C701B6010E94B1109D
:100A10004B015C010E94CB0F6B01E12CF12C2AE011
:100A2000B701A601C8010E941004C80FD91FC70151
:100A3000B6010E94FA0F9B01AC01C501B4010E94EE
:100A4000E00E6B017C017A947110DACFCE01DF9158
:100A5000CF911F910F91FF90EF90DF90CF90BF90BB
:100A6000AF909F908F907F9008950C94FB031F92FE
:100A70000F920FB60F9211242F933F934F935F93D2
:100A80006F937F938F939F93AF93BF93EF93FF9356
:100A900089ED91E00E942A07FF91EF91BF91AF91FC
:100AA0009F918F917F916F915F914F913F912F9186
:100AB0000F900FBE0F901F9018951F920F920FB6B8
:100AC0000F9211242F938F939F93EF93FF93E091B5
:100AD000E901F091EA018081E091EF01F091F001EC
:100AE00082FD12C090818091F2018F5F8F732091FF
:100AF000F301821751F0E091F201F0E0E752FE4F6E
:100B0000958F8093F20101C08081FF91EF919F91B9
:100B10008F912F910F900FBE0F901F901895CF922D
:100B2000DF92EF92FF920F931F93CF93DF936C01AD
:100B30007C0187E0E80EF11CC0E0D0E0062F10E059
:100B4000B8010C2E02C0759567950A94E2F76170A2
:100B5000F70181917F010E94BB072196C430D10526
:100B600079F7C601DF91CF911F910F91FF90EF9020
:100B7000DF90CF900C94E700CF92DF92EF92FF923C
:100B80000F931F93CF93DF93EC01F62E642F8C818C
:100B90000E94BB078D818F3F19F060E00E94BB0768
:100BA0008F850F2D10E084FF25C06E0187E0C80EF1
:100BB000D11CE12CF12CB8010E2C02C07595679563
:100BC0000A94E2F76170F60181916F010E94BB0700
:100BD000FFEFEF1AFF0A88E0E816F10461F7CE0193
:100BE000DF91CF911F910F91FF90EF90DF90CF9009
:100BF0000C94E700B80184E0759567958A95E1F754
:100C0000CE010E948F056F2DCE01DF91CF911F91F4
:100C10000F91FF90EF90DF90CF900C948F0541E003
:100C20000E94BC0581E090E0089508950895CF9258
:100C3000DF92EF92FF921F93CF93DF93EC011F811E
:100C4000662311F0912F01C090E0288530E0220F3B
:100C5000331F29513F4FA0E0B0E0F9014591549175
:100C6000FA0180818123AD0160E070E089130FC03B
:100C70001196CD84DE84EF84F8884C155D056E05F1
:100C80007F0558F33FEF2FEF8FEF9FEF03C03A2F11
:100C9000252FCB01632F722FDF91CF911F91FF90F2
:100CA000EF90DF90CF900895FC01538D448D252F58
:100CB00030E0842F90E0821B930B541710F0CF96F6
:100CC000089501970895FC01918D828D981761F028
:100CD000828DDF01A80FB11D5D968C91928D9F5F73
:100CE0009F73928F90E008958FEF9FEF0895FC011E
:100CF000918D828D981731F0828DE80FF11D858DD1
:100D000090E008958FEF9FEF0895FC01918D228D63
:100D1000892F90E0805C9F4F821B91098F739927E8
:100D2000089580E090E0892B29F00E94FF00811156
:100D30000C940000089540E0682F86E792E00C9440
:100D4000BC05FB01DC0153968C918C3041F038F4EA
:100D50008B3029F480E492E4AFE0B0E004C080E896
:100D600094E8AEE1B0E084A395A3A6A3B7A3089549
:100D7000CF93DF93EB01FC0183898C3089F038F449
:100D80008B30C1F44BE050E066EA71E017C085316A
:100D900061F0863179F44BE050E068EB71E00EC011
:100DA0004BE050E06CEA71E009C04BE050E062EBD0
:100DB00071E004C04BE050E06EEB71E0CE010E94A8
:100DC00049121B86DF91CF910895CF92DF92EF9267
:100DD000FF920F931F93CF93DF9377FF1DC06A019C
:100DE0007B01EC016DE20E94D0038C014427552762
:100DF000BA014C195D096E097F092AE0CE010E94F3
:100E00001004800F911FDF91CF911F910F91FF90E0
:100E1000EF90DF90CF9008952AE0DF91CF911F915E
:100E20000F91FF90EF90DF90CF900C941004CF9330
:100E3000DF93BC0189ED91E00E94D703EC016BE7E1
:100E400071E089ED91E00E94FB038C0F9D1FDF9103
:100E5000CF910895FC01848DDF01A80FB11DA35A25
:100E6000BF4F2C91848D90E001968F739927848FCA
:100E7000A689B7892C93A089B1898C9183708064ED
:100E80008C93938D848D981306C00288F389E02D8E
:100E900080818F7D80830895EF92FF920F931F933F
:100EA000CF93DF93EC0181E0888F9B8D8C8D98131D
:100EB00005C0E889F989808185FD26C0F62E0B8D55
:100EC00010E00F5F1F4F0F731127E02E8C8DE8127B
:100ED0000CC00FB607FCFACFE889F989808185FF3D
:100EE000F5CFCE010E942A07F1CF8B8DFE01E80FCE
:100EF000F11DE35AFF4FF0829FB7F8940B8FEA89F8
:100F0000FB89808180620AC09FB7F894EE89FF89CF
:100F10006083E889F98980818370806480839FBFC2
:100F200081E090E0DF91CF911F910F91FF90EF90C2
:100F30000895CF93DF93EC01888D8823C9F0EA8967
:100F4000FB89808185FD05C0A889B9898C9186FDC2
:100F50000FC00FB607FCF5CF808185FFF2CFA889BF
:100F6000B9898C9185FFEDCFCE010E942A07E7CF8A
:100F7000DF91CF91089590E0FC01ED52FF4F249155
:100F8000FC01EB5FFE4F3491FC01EF50FF4FE49109
:100F9000EE2309F43CC0222339F1233091F038F4D8
:100FA0002130A9F0223001F584B58F7D12C02730A1
:100FB00091F02830A1F02430B9F4809180008F7D29
:100FC00003C0809180008F77809380000DC084B52E
:100FD0008F7784BD09C08091B0008F7703C0809166
:100FE000B0008F7D8093B000F0E0EE0FFF1FE7535D
:100FF000FF4FA591B4919FB7F894611104C08C91F3
:101000003095382302C0EC913E2B3C939FBF08954E
:10101000CF93DF9390E0FC01EB5FFE4F2491FC0146
:10102000EF50FF4F8491882361F190E0880F991F62
:10103000FC01E154FF4FC591D491FC01E753FF4FF0
:10104000A591B491611109C09FB7F894888120954A
:1010500082238883EC912E230BC0623061F49FB70A
:10106000F8948881322F309583238883EC912E2B3E
:101070002C939FBF06C08FB7F894E8812E2B28834E
:101080008FBFDF91CF910895CF93DF93823028F007
:1010900090918502986090938502809389021092C6
:1010A0008A0280E480938B0280E180938C0280E549
:1010B00080938D0261E080917A020E9408088091FD
:1010C0007B028F3F19F061E00E94080861E0809187
:1010D0007C020E940808C6E7D2E09E0126573240F3
:1010E0008091850284FD03C084E090E002C088E026
:1010F00090E02196281739072CF461E08E810E9438
:101100000808EBCF8BE39DE00197F1F760E0809159
:101110007A020E94BB0760E080917C020E94BB07BC
:1011200080917B028F3F19F060E00E94BB078091A5
:10113000850284FD20C063E086E792E00E948F056F
:10114000CBE4D6E4CE010197F1F763E086E792E0C5
:101150000E948F052197F1F763E086E792E00E94F5
:101160008F0583E592E00197F1F762E086E792E070
:101170000E948F0515C080620E949B068BE496E456
:101180000197F1F78091850280620E949B0683E5BA
:1011900092E00197F1F78091850280620E949B06A0
:1011A0008091850280620E949B0684E08093860283
:1011B0008CE00E949B0681E00E949B068BE39FE1EE
:1011C0000197F1F782E08093870286E0DF91CF916B
:1011D0000C949B068F929F92AF92BF92CF92DF9218
:1011E000EF92FF926B017C010E9461034B015C0155
:1011F000C114D104E104F104F1F00E946103DC01A7
:10120000CB0188199909AA09BB09883E9340A10519
:10121000B10570F321E0C21AD108E108F10888EEA7
:10122000880E83E0981EA11CB11CC114D104E104F6
:10123000F10419F7DDCFFF90EF90DF90CF90BF90D2
:10124000AF909F908F9008958F929F92AF92BF9290
:10125000CF92DF92EF92FF920F931F93CF93DF9382
:10126000CDB7DEB7C054D1400FB6F894DEBF0FBE85
:10127000CDBF2FB7F8944091D5015091D601609120
:10128000D7017091D8012FBFFC01018512852385FC
:1012900034856A017B01C01AD10AE20AF30AE0ED43
:1012A000CE16E7E0DE06E104F10418F4FC018189C2
:1012B000C2C08C01FC014187528763877487148206
:1012C000138212821182108262E085810E940808D6
:1012D00061E070E080E090E00E94EA0861E0F801DF
:1012E00085810E94080860E0F80185810E94BB07A3
:1012F000F80186818551823028F48BE291E10197D3
:10130000F1F706C064E170E080E090E00E94EA0836
:1013100062E0F80185810E940808F801828990E066
:101320008230910538F0880F991F880F991F059713
:101330000197F1F7F89460E0C8010E9417066F3F2B
:101340007F4F8F4F9F4F21F4F801118A789444C04A
:1013500061E0C8010E9417066F3F7F4F8F4F9F4F7C
:1013600099F3CE0101967C015E019FEBA91A9EEFD5
:10137000B90A670160E0C8010E941706F6016083A0
:1013800071838283938361E0C8010E941706F6018E
:101390006483758386839783F8E0CF0ED11CCA14CB
:1013A000DB0441F7789420E030E0F7018080918001
:1013B000A280B3804481558166817781FFEF8F16CB
:1013C0009F06AF06BF0631F04F3F8FEF5807680703
:1013D000780721F4F801118A80E02DC0F90183E03B
:1013E000F595E7958A95E1F7E00FF11F8081880F69
:1013F00084169506A606B70608F4816080832F5FE1
:101400003F4FF8E0EF0EF11C2832310571F6F8017C
:10141000248130E04081818190E0840F911D4281E0
:10142000840F911D4381840F911D99272817390737
:1014300089F681E0818BC05CDE4F0FB6F894DEBF89
:101440000FBECDBFDF91CF911F910F91FF90EF9015
:10145000DF90CF90BF90AF909F908F900895CF92E4
:10146000DF92EF92FF920F931F93E82FF92F05C0A1
:10147000015011092109310961F1908196239417D6
:10148000B9F305C0015011092109310911F1908109
:1014900096239413F7CFC12CD12CE12CF12C0AC048
:1014A0008FEFC81AD80AE80AF80A0C151D052E0590
:1014B0003F0579F080818623841791F36C2D7D2D73
:1014C0008E2D9F2D1F910F91FF90EF90DF90CF9069
:1014D000089560E070E080E090E01F910F91FF9030
:1014E000EF90DF90CF900895CF93DF93CDB7DEB725
:1014F000E1970FB6F894DEBF0FBECDBF789484B5E8
:10150000826084BD84B5816084BD85B5826085BDFF
:1015100085B5816085BD80916E00816080936E008D
:10152000109281008091810082608093810080917F
:101530008100816080938100809180008160809330
:1015400080008091B10084608093B1008091B000F0
:1015500081608093B00080917A00846080937A00EB
:1015600080917A00826080937A0080917A00816015
:1015700080937A0080917A00806880937A0010923C
:10158000C10061E081E00E94080861E083E00E9400
:10159000080861E081E00E94BB0761E083E00E94EF
:1015A000BB0762E0809193020E9408082FB7F8946D
:1015B0008091D5019091D601A091D701B091D80129
:1015C0002FBF805D9740A109B10980939702909346
:1015D0009802A0939902B0939A0287E38093A002A5
:1015E0008091A4028BA78EE291E09AA789A78091AF
:1015F000A5029091A6029DA78CA78091A702909129
:10160000A802A091A902B091AA028EA79FA7A8AB99
:10161000B9ABBE016F5F7F4FCE0189960E948701F3
:101620008091AD028BA78AE491E09AA789A7809167
:10163000AE029091AF029DA78CA78091B0029091CD
:10164000B102A091B202B091B3028EA79FA7A8AB3E
:10165000B9ABBE016F5F7F4FCE0189960E94090131
:1016600082E00E94440868E671E086E792E00E940A
:10167000350593E0E92EF12C2AEF422E26E1522E79
:10168000612C712C32E0232E312C48E0C42E47E02F
:10169000D42E68EC70E080E090E00E94EA0810929E
:1016A000C0021092C1021092C2021092C30260E006
:1016B0008091BE020E94BB07C7010197F1F761E06C
:1016C0008091BE020E94BB0783E290E00197F1F790
:1016D00060E08091BE020E94BB07C7010197F1F74D
:1016E0008091BC029091BD029927FC01EB5FFE4FF7
:1016F0006491FC01EF50FF4FE491F0E0EE0FFF1F0B
:10170000E951FF4F8591949100EF19E422E030E018
:10171000462F0E942F0A611571058105910549F038
:10172000DC01CB010196A11DB11D9C01AD015F70D3
:1017300003C020E030E0A9012093C0023093C10231
:101740004093C2025093C302A4E6B0E00E94C00ED0
:10175000A30192010E94A10E49015A0169E170E0C2
:1017600080E090E00E94EA088092C4019092C50156
:10177000A092C601B092C701B501A40189ED91E024
:101780000E94E50668E771E089ED91E00E94FB03A5
:101790006BE771E089ED91E00E94FB036091C40169
:1017A0007091C5018091C6019091C7010E94FC0F04
:1017B0002DEF3DEA40E05EE30E94B1109B01AC01D9
:1017C0006091B4027091B5028091B6029091B70217
:1017D0000E94E00E6093CC017093CD018093CE0106
:1017E0009093CF016EE771E089ED91E00E9435059D
:1017F0004091CC015091CD016091CE017091CF010B
:1018000022E089ED91E00E9459046BE771E089EDD7
:1018100091E00E94FB038091A4028BA78EE291E0ED
:101820009AA789A78091A5029091A6029DA78CA74F
:101830008091A7029091A802A091A902B091AA025A
:101840008EA79FA7A8ABB9ABBE016F5F7F4FCE013C
:1018500089960E94A0026D897E898F89988D9B014F
:10186000AC010E941E11882319F08FE990E01CC082
:1018700061E970E089ED91E00E94D7036D897E896E
:101880008F89988D0E94C40FAB01BC014093C801A1
:101890005093C9016093CA017093CB0189ED91E027
:1018A0000E94E5068DE890E00E9417078091AD0246
:1018B0008BA78AE491E09AA789A78091AE029091C4
:1018C000AF029DA78CA78091B0029091B102A09128
:1018D000B202B091B3028EA79FA7A8ABB9ABBE016D
:1018E0006F5F7F4FCE0189960E941A026D897E89B3
:1018F0008F89988D9B01AC010E941E11882319F0DD
:1019000085E790E014C06AE670E089ED91E00E94FE
:10191000D7036D897E898F89988D0E94C40FAB0192
:10192000BC0189ED91E00E94E50688E690E00E9406
:10193000170760E081E00E94BB0768EC70E080E080
:1019400090E00E94EA0890E490937C0080917A00F5
:10195000806480937A0080917A0086FDFCCF60914C
:1019600078008091790070E0782B072E000C880BAE
:10197000990B0E94FC0F20E030E040EE52E40E9400
:10198000E00E20E030E844E554E40E94520F20E0ED
:1019900030E040E85FE30E94E00E20E030E048ECF9
:1019A00052E40E94B1104B015C0120E030E0A9013B
:1019B0000E94AC10181624F0B7FAB094B7F8B0949F
:1019C0008092020190920301A0920401B09205015D
:1019D00061E081E00E94BB0720E030E048E452E48F
:1019E000C501B4010E94AC1087FD09C061E083E02D
:1019F0000E94BB07D0920101C092000122C020E0EA
:101A000030E048E452E4C501B4010E944D0F87FF65
:101A100018C020E030E040E85FE36091CC017091B5
:101A2000CD018091CE019091CF010E94AC1018168B
:101A300044F460E083E00E94BB07309201012092F1
:101A4000000181E00E949B068BE39FE10197F1F783
:101A5000E1E0809189028111E0E0E195F0E0EA584F
:101A6000FD4F848980680E949B0660E971E086E7EB
:101A700092E00E9435054091C8015091C9016091E2
:101A8000CA017091CB0186E792E00E94E5066CEBFB
:101A900070E086E792E00E94D70363E971E086E791
:101AA00092E00E94350567E971E086E792E00E94C6
:101AB00035054091C8015091C9016091CA017091EA
:101AC000CB0186E792E00E94E5066AEB70E086E7CC
:101AD00092E00E94D703E0918902E23010F4E150D5
:101AE00001C0E1E0F0E0EA58FD4F848980680E947F
:101AF0009B066AE971E086E792E00E943505409115
:101B0000C4015091C5016091C6017091C70186E77B
:101B100092E00E94E5066DE971E086E792E00E949E
:101B200035056FE971E086E792E00E943505409146
:101B3000020150910301609104017091050122E0BE
:101B400086E792E00E94590464EA71E086E792E039
:101B50000E94350500E010E08091000190910101A4
:101B60000817190748F468EE73E080E090E00E94DF
:101B7000EA080F5F1F4FF0CF0E9491068ACDCF93E6
:101B8000DF93E9EDF1E01382128288EE93E0A0E0AA
:101B9000B0E084839583A683B78380E191E091834D
:101BA000808385EC90E09587848784EC90E097872C
:101BB000868780EC90E0918B808B81EC90E0938B1A
:101BC000828B82EC90E0958B848B86EC90E0978BF7
:101BD000868B118E128E138E148EC8EBD2E084E0A9
:101BE00090E09D838C8385E090E09F838E8360E00E
:101BF00084E00E94080861E08E810E940808188A2B
:101C000087EE93E0A0E0B0E08C879D87AE87BF872A
:101C100085EE9BECA6E1B2E48093B4029093B5020A
:101C2000A093B602B093B702AEE8B2E082E0159698
:101C30008C9315978BE016968C931697E7E0F1E05E
:101C4000E4911796EC931797E3EFF0E0E491189680
:101C5000EC93189740E85EE360E070E01D964D93CA
:101C60005D936D937C93509753968C9353972EE28C
:101C700031E055963C932E9354970A2E1B2E58967E
:101C80001C920E92112457974FEF5FEFBA015996AD
:101C90004D935D936D937C935C972AE431E05E965F
:101CA0003C932E935D970A2E1B2E91961C920E92BA
:101CB0001124909792964D935D936D937C93959795
:101CC000E6E7F2E01382128222E231E031832083E0
:101CD00097E094839FEF958398E0968399E09783AC
:101CE0009AE0908781878CE0828713861486158618
:101CF0001686178681E0DF91CF910C944408A1E20B
:101D00001A2EAA1BBB1BFD010DC0AA1FBB1FEE1F75
:101D1000FF1FA217B307E407F50720F0A21BB30BC0
:101D2000E40BF50B661F771F881F991F1A9469F73C
:101D300060957095809590959B01AC01BD01CF0198
:101D40000895052E97FB1EF400940E94B80E57FDCF
:101D500007D00E947F0E07FC03D04EF40C94B80EFF
:101D600050954095309521953F4F4F4F5F4F0895C7
:101D700090958095709561957F4F8F4F9F4F0895F7
:101D80000E94D10EA59F900DB49F900DA49F800D31
:101D9000911D11240895EE0FFF1F0590F491E02D81
:101DA0000994A29FB001B39FC001A39F700D811D34
:101DB0001124911DB29F700D811D1124911D089554
:101DC0005058BB27AA270E94F80E0C9472100E944C
:101DD000641038F00E946B1020F039F49F3F19F422
:101DE00026F40C9461100EF4E095E7FB0C945B1064
:101DF000E92F0E94831058F3BA176207730784070C
:101E0000950720F079F4A6F50C94A5100EF4E09552
:101E10000B2EBA2FA02D0B01B90190010C01CA01A4
:101E2000A0011124FF27591B99F0593F50F4503E4F
:101E300068F11A16F040A22F232F342F4427585F41
:101E4000F3CF469537952795A795F0405395C9F759
:101E50007EF41F16BA0B620B730B840BBAF0915011
:101E6000A1F0FF0FBB1F661F771F881FC2F70EC0B0
:101E7000BA0F621F731F841F48F487957795679583
:101E8000B795F7959E3F08F0B0CF9395880F08F06F
:101E90009927EE0F9795879508950E94371008F4BB
:101EA00081E008950E94660F0C9472100E946B10DE
:101EB00058F00E94641040F029F45F3F29F00C9420
:101EC0005B1051110C94A6100C9461100E948310A9
:101ED00068F39923B1F3552391F3951B550BBB2759
:101EE000AA2762177307840738F09F5F5F4F220F9E
:101EF000331F441FAA1FA9F335D00E2E3AF0E0E895
:101F000032D091505040E695001CCAF72BD0FE2FDE
:101F100029D0660F771F881FBB1F26173707480772
:101F2000AB07B0E809F0BB0B802DBF01FF2793582A
:101F30005F4F3AF09E3F510578F00C945B100C9483
:101F4000A6105F3FE4F3983ED4F3869577956795A6
:101F5000B795F7959F5FC9F7880F911D969587955F
:101F600097F90895E1E0660F771F881FBB1F62177E
:101F700073078407BA0720F0621B730B840BBA0B3C
:101F8000EE1F88F7E09508950E94CB0F6894B11179
:101F90000C94A61008950E948B1088F09F5798F01B
:101FA000B92F9927B751B0F0E1F0660F771F881F5E
:101FB000991F1AF0BA95C9F714C0B13091F00E9478
:101FC000A510B1E008950C94A510672F782F8827ED
:101FD000B85F39F0B93FCCF3869577956795B3959F
:101FE000D9F73EF490958095709561957F4F8F4F0E
:101FF0009F4F0895E89409C097FB3EF49095809513
:10200000709561957F4F8F4F9F4F9923A9F0F92FBE
:1020100096E9BB279395F695879577956795B7953C
:10202000F111F8CFFAF4BB0F11F460FF1BC06F5F22
:102030007F4F8F4F9F4F16C0882311F096E911C034
:10204000772321F09EE8872F762F05C0662371F055
:1020500096E8862F70E060E02AF09A95660F771F69
:10206000881FDAF7880F9695879597F90895990F45
:102070000008550FAA0BE0E8FEEF16161706E80752
:10208000F907C0F012161306E407F50798F0621B73
:10209000730B840B950B39F40A2661F0232B242B48
:1020A000252B21F408950A2609F4A140A6958FEF67
:1020B000811D811D089597F99F6780E870E060E0B9
:1020C00008959FEF80EC089500240A9416161706D1
:1020D00018060906089500240A9412161306140619
:1020E00005060895092E0394000C11F4882352F07C
:1020F000BB0F40F4BF2B11F460FF04C06F5F7F4F34
:102100008F4F9F4F089557FD9058440F551F59F01A
:102110005F3F71F04795880F97FB991F61F09F3FD4
:1021200079F087950895121613061406551FF2CFFD
:102130004695F1DF08C0161617061806991FF1CF4D
:1021400086957105610508940895E894BB27662774
:102150007727CB0197F908950E94371008F48FEF85
:1021600008950E94C4100C9472100E94641038F0FC
:102170000E946B1020F0952311F00C945B100C94CE
:10218000611011240C94A6100E94831070F3959F87
:10219000C1F3950F50E0551F629FF001729FBB275E
:1021A000F00DB11D639FAA27F00DB11DAA1F649FFA
:1021B0006627B00DA11D661F829F2227B00DA11DAD
:1021C000621F739FB00DA11D621F839FA00D611D33
:1021D000221F749F3327A00D611D231F849F600D54
:1021E000211D822F762F6A2F11249F5750409AF07D
:1021F000F1F088234AF0EE0FFF1FBB1F661F771F09
:10220000881F91505040A9F79E3F510580F00C94D3
:102210005B100C94A6105F3FE4F3983ED4F38695D0
:1022200077956795B795F795E7959F5FC1F7FE2B73
:10223000880F911D9695879597F908950E943710FC
:10224000880B990B08950F931F93CF93DF938230E0
:10225000910510F482E090E0E091CB02F091CC0285
:1022600020E030E0A0E0B0E0309719F140815181EA
:102270000281138148175907C8F08417950769F43C
:10228000109731F012960C93129713961C9327C057
:102290000093CB021093CC0222C02115310519F016
:1022A0004217530718F49A01BD01EF01DF01F8014D
:1022B000DBCF21153105F9F0281B390B243031050E
:1022C00080F48A819B816115710521F0FB01938364
:1022D000828304C09093CC028093CB02FE0132969D
:1022E00044C0FE01E20FF31F819391932250310904
:1022F000398328833AC02091C9023091CA02232B26
:1023000041F420910801309109013093CA022093D1
:10231000C90220910601309107012115310541F4D0
:102320002DB73EB740910A0150910B01241B350B8C
:10233000E091C902F091CA02E217F307A0F42E1B44
:102340003F0B2817390778F0AC014E5F5F4F241719
:10235000350748F04E0F5F1F5093CA024093C902E1
:102360008193919302C0E0E0F0E0CF01DF91CF9143
:102370001F910F910895CF93DF93009709F481C0C7
:10238000FC01329713821282A091CB02B091CC0251
:10239000109781F420813181820F931F2091C9020F
:1023A0003091CA022817390751F5F093CA02E09319
:1023B000C90267C0ED0120E030E0CE17DF0740F42E
:1023C0004A815B819E0141155105F1F0EA01F5CF8B
:1023D000D383C28340815181840F951FC817D907C9
:1023E00059F488819981840F951F02969183808387
:1023F0008A819B81938382832115310529F4F0938F
:10240000CC02E093CB023DC0E901FB83EA83499112
:102410005991C40FD51FEC17FD0761F4808191819C
:10242000840F951F0296E9019983888382819381A5
:102430009B838A83E0E0F0E012968D919C91139744
:10244000009719F0FD01DC01F7CF8D919C91119758
:102450009D012E5F3F4F820F931F2091C902309143
:10246000CA022817390769F4309729F41092CC0270
:102470001092CB0202C013821282B093CA02A093C0
:10248000C902DF91CF91089581E090E0F8940C9417
:102490005812FB01DC014150504048F001900D9270
:1024A0000020C9F701C01D9241505040E0F7089547
:0424B000F894FFCFCE
:1024B4008813000080440000CD028000000000006A
:1024C4004C07B80054069907850663067706000092
:1024D40000000F06B800E300E2000000000016064A
:1024E4005F03E600A0028701000000000000000076
:1024F400E600FD00FD000000000015065D03E60097
:102504001A020901CDCC4C3E9A99993E6E616E0037
:10251400696E66006F766600496E697469616C69FC
:1025240074696E672E2E2E00636D000D0A005265CD
:102534006D61696E696E672077617465723A200017
:10254400543D0020202000483D00563D004C002012
:1025540020533D002500444854313100444854314F
:102564003200444854323100444854323200444822
:04257400543F0000D0
:00000001FF
