:100000000C948B000C94B3000C94B3000C94B300CC
:100010000C94B3000C94B3000C94B3000C94B30094
:100020000C94B3000C94B3000C94B3000C94B30084
:100030000C94B3000C94B3000C94B3000C94B30074
:100040000C94E4070C94B3000C9454080C942E0800
:100050000C94B3000C94B3000C94B3000C94B30054
:100060000C94B3000C94B300250048756D69646965
:1000700074793A20004572726F722072656164690A
:100080006E672068756D69646974792100C2B04338
:100090000054656D70657261747572653A20004533
:1000A00072726F722072656164696E672074656D2B
:1000B0007065726174757265210000000000240093
:1000C00027002A0000000000250028002B00000067
:1000D0000008000201000003040700000000000007
:1000E000000000000000230026002900040404048E
:1000F00004040404020202020202030303030303D2
:1001000001020408102040800102040810200102AE
:1001100004081020CB0811241FBECFEFD8E0DEBFAB
:10012000CDBF11E0A0E0B1E0E0E5FEE102C0059046
:100130000D92A436B107D9F722E0A4E6B1E001C0E0
:100140001D92A534B207E1F710E0CBE8D0E004C07F
:100150002197FE010E94A00BCA38D107C9F70E945F
:1001600063090C94260F0C940000FB01DC015396EC
:100170008C918C3041F038F48B3029F480E492E497
:10018000AFE0B0E004C080E894E8AEE1B0E084A362
:1001900095A3A6A3B7A30895CF92DF92EF92FF9203
:1001A0001F93CF93DF93EC011F81662311F0912FF2
:1001B00001C090E0288530E0220F331F2E513F4FC1
:1001C000A0E0B0E0F90145915491FA0180818123CA
:1001D000AD0160E070E089130FC01196CD84DE841C
:1001E000EF84F8884C155D056E057F0558F33FEFE9
:1001F0002FEF8FEF9FEF03C03A2F252FCB01632FF7
:10020000722FDF91CF911F91FF90EF90DF90CF90F1
:10021000089590E0FC01E253FF4F2491FC01E0506F
:10022000FF4F3491FC01E451FF4FE491EE2309F4B8
:100230003CC0222339F1233091F038F42130A9F069
:10024000223001F584B58F7D12C0273091F028301F
:10025000A1F02430B9F4809180008F7D03C080919B
:1002600080008F77809380000DC084B58F7784BD28
:1002700009C08091B0008F7703C08091B0008F7D5E
:100280008093B000F0E0EE0FFF1FEC53FF4FA591FD
:10029000B4919FB7F894611104C08C9130953823C4
:1002A00002C0EC913E2B3C939FBF0895CF93DF9308
:1002B00090E0FC01E050FF4F2491FC01E451FF4F1E
:1002C0008491882361F190E0880F991FFC01E65426
:1002D000FF4FC591D491FC01EC53FF4FA591B49110
:1002E000611109C09FB7F894888120958223888383
:1002F000EC912E230BC0623061F49FB7F894888193
:10030000322F309583238883EC912E2B2C939FBF23
:1003100006C08FB7F894E8812E2B28838FBFDF911A
:10032000CF9108953FB7F89480916501909166014F
:10033000A0916701B091680126B5A89B05C02F3F29
:1003400019F00196A11DB11D3FBFBA2FA92F982FFB
:100350008827820F911DA11DB11DBC01CD0142E076
:10036000660F771F881F991F4A95D1F708958F92BE
:100370009F92AF92BF92CF92DF92EF92FF926B016A
:100380007C010E9492014B015C01C114D104E10483
:10039000F104F1F00E949201DC01CB018819990966
:1003A000AA09BB09883E9340A105B10570F321E07D
:1003B000C21AD108E108F10888EE880E83E0981E81
:1003C000A11CB11CC114D104E104F10419F7DDCF63
:1003D000FF90EF90DF90CF90BF90AF909F908F9065
:1003E00008958F929F92AF92BF92CF92DF92EF9239
:1003F000FF920F931F93CF93DF93CDB7DEB7C05417
:10040000D1400FB6F894DEBF0FBECDBF2FB7F89422
:100410004091690150916A0160916B0170916C018A
:100420002FBFFC0101851285238534856A017B017C
:10043000C01AD10AE20AF30AE0EDCE16E7E0DE06C2
:10044000E104F10418F4FC018189C2C08C01FC01B3
:1004500041875287638774871482138212821182C4
:10046000108262E085810E94560161E070E080E0C8
:1004700090E00E94B70161E0F80185810E94560179
:1004800060E0F80185810E940901F80186818551AB
:10049000823028F48BE291E10197F1F706C064E124
:1004A00070E080E090E00E94B70162E0F801858191
:1004B0000E945601F801828990E08230910538F05F
:1004C000880F991F880F991F05970197F1F7F894E6
:1004D00060E0C8010E94CC006F3F7F4F8F4F9F4F5D
:1004E00021F4F801118A789444C061E0C8010E94A7
:1004F000CC006F3F7F4F8F4F9F4F99F3CE010196F6
:100500007C015E019FEBA91A9EEFB90A670160E0CA
:10051000C8010E94CC00F6016083718382839383BB
:1005200061E0C8010E94CC00F60164837583868374
:100530009783F8E0CF0ED11CCA14DB0441F77894FE
:1005400020E030E0F70180809180A280B380448178
:10055000558166817781FFEF8F169F06AF06BF0634
:1005600031F04F3F8FEF58076807780721F4F80103
:10057000118A80E02DC0F90183E0F595E7958A9511
:10058000E1F7E00FF11F8081880F84169506A6061B
:10059000B70608F4816080832F5F3F4FF8E0EF0ECD
:1005A000F11C2832310571F6F801248130E04081D8
:1005B000818190E0840F911D4281840F911D4381C0
:1005C000840F911D99272817390789F681E0818BBF
:1005D000C05CDE4F0FB6F894DEBF0FBECDBFDF911B
:1005E000CF911F910F91FF90EF90DF90CF90BF9030
:1005F000AF909F908F900895CF92DF92EF92FF92ED
:100600000F931F93CF93DF936C017A018B01C0E0AE
:10061000D0E0CE15DF0581F0D8016D918D01D601B6
:10062000ED91FC910190F081E02DC6010995892B97
:1006300011F02196EECF7E01C701DF91CF911F917E
:100640000F91FF90EF90DF90CF900895089580E094
:1006500090E00895FC01538D448D252F30E0842FC8
:1006600090E0821B930B541710F0CF9608950197DA
:100670000895FC01918D828D981761F0828DDF01C4
:10068000A80FB11D5D968C91928D9F5F9F73928F85
:1006900090E008958FEF9FEF0895FC01918D828D7A
:1006A000981731F0828DE80FF11D858D90E0089547
:1006B0008FEF9FEF0895FC01918D228D892F90E09F
:1006C000805C9F4F821B91098F73992708958DE657
:1006D00091E00E945B0321E0892B09F420E0822F46
:1006E0000895FC01848DDF01A80FB11DA35ABF4FEF
:1006F0002C91848D90E001968F739927848FA68921
:10070000B7892C93A089B1898C91837080648C9374
:10071000938D848D981306C00288F389E02D808123
:100720008F7D80830895EF92FF920F931F93CF9355
:10073000DF93EC0181E0888F9B8D8C8D981305C031
:10074000E889F989808185FD26C0F62E0B8D10E0A1
:100750000F5F1F4F0F731127E02E8C8DE8120CC016
:100760000FB607FCFACFE889F989808185FFF5CFBC
:10077000CE010E947103F1CF8B8DFE01E80FF11DB8
:10078000E35AFF4FF0829FB7F8940B8FEA89FB89F9
:10079000808180620AC09FB7F894EE89FF896083E8
:1007A000E889F98980818370806480839FBF81E0BC
:1007B00090E0DF91CF911F910F91FF90EF900895FE
:1007C0000F931F93CF93DF938C01C0E0D0E0F8012B
:1007D000EC0FFD1F6491662341F08DE691E00E94CD
:1007E0009303892B11F02196F2CFCE01DF91CF91A7
:1007F0001F910F910895CF93DF93EC01888D88238B
:10080000C9F0EA89FB89808185FD05C0A889B9897D
:100810008C9186FD0FC00FB607FCF5CF808185FF58
:10082000F2CFA889B9898C9185FFEDCFCE010E94C6
:100830007103E7CFDF91CF91089580E090E0892B9D
:1008400029F00E94670381110C9400000895089517
:1008500008950895CF93DF93EB01FC0183898C30D9
:1008600089F038F48B30C1F44BE050E064E371E080
:1008700017C0853161F0863179F44BE050E066E4D1
:1008800071E00EC04BE050E06AE371E009C04BE05C
:1008900050E060E471E004C04BE050E06CE471E0D3
:1008A000CE010E94170F1B86DF91CF91089500970C
:1008B00069F0FC0101900020E9F73197AF01481B76
:1008C000590BBC018DE691E00C94FC0280E090E0B5
:1008D0000895CF93DF930E94E003EC0181E591E05E
:1008E0000E9457048C0F9D1FDF91CF9108958F9226
:1008F0009F92AF92BF920F931F93CF93DF93CDB789
:10090000DEB7A1970FB6F894DEBF0FBECDBF19A218
:10091000423008F44AE08E010F5D1F4F842E912C67
:10092000A12CB12CA50194010E94540BE62FB90112
:10093000CA0101501109EA3014F4E05D01C0E95C1C
:10094000D801EC93232B242B252B61F7C8010E949F
:100950005704A1960FB6F894DEBF0FBECDBFDF914E
:10096000CF911F910F91BF90AF909F908F9008955E
:100970008F929F92AF92BF92CF92DF92EF92FF92AF
:100980000F931F93CF93DF936B017C01142F9B0177
:10099000AC010E94EC0D882319F084E591E027C09A
:1009A00046015701E894B7F82FEF3FEF4FE75FE7B5
:1009B000C501B4010E94EC0D81110DC02FEF3FEF76
:1009C0004FE75FE7C501B4010E94220C18161CF422
:1009D00088E591E00CC02FEF3FEF4FE75FE4C701E0
:1009E000B6010E947A0D181684F48CE591E0DF912F
:1009F000CF911F910F91FF90EF90DF90CF90BF901C
:100A0000AF909F908F900C9457042FEF3FEF4FE7DC
:100A10005FECC701B6010E94220C87FDE6CF20E003
:100A200030E0A901C701B6010E94220C87FF0BC06C
:100A30006DE28DE691E00E949303EC01F7FAF094E9
:100A4000F7F8F09402C0C0E0D0E000E060E070E0B1
:100A500080E09FE3101741F020E030E040E251E4F5
:100A60000E94270C0F5FF6CFA70196010E94B60BDC
:100A70006B017C010E94990C4B015C014AE00E94D1
:100A80007704C80FD91F1123B9F1C501B4010E9421
:100A9000C80C9B01AC01C701B6010E94B50B6B01EC
:100AA0007C016EE28DE691E00E949303C80FD91F8E
:100AB00020E030E040E251E4C701B6010E947F0D22
:100AC0004B015C010E94990C6B01E12CF12C4AE076
:100AD000C701B6010E947704C80FD91FC701B6012C
:100AE0000E94C80C9B01AC01C501B4010E94B50B6A
:100AF0006B017C011150E1F6CE01DF91CF911F9186
:100B00000F91FF90EF90DF90CF90BF90AF909F90AC
:100B10008F9008950E94120F0F931F93CF93DF932E
:100B20008C01EB0188E2DB011D928A95E9F7F8015F
:100B3000838194810E942A0481E090E0A0E0B0E0EB
:100B40008C879D87AE87BF87F80185819681A781B5
:100B5000B085888B998BAA8BBB8B8CE090E0A0E052
:100B6000B0E08C8B9D8BAE8BBF8BBE01838194815B
:100B70000E94B500D8011396ED91FC9114978389DA
:100B80008C3069F038F48B30A1F580E090E0A0EA79
:100B9000B2E409C08531C1F08631B1F02AC080E0ED
:100BA00090E0AEEBB2E4888F998FAA8FBB8F80E084
:100BB00090E0A0EAB1E48C8F9D8FAE8FBF8F80E074
:100BC00090E0A0EAB0E410C080E090E0A8ECB2E4CD
:100BD000888F998FAA8FBB8F1C8E1D8E1E8E1F8EA5
:100BE0008DEC9CECACECBDE388A399A3AAA3BBA3BA
:100BF0000CC0188E198E1A8E1B8E1C8E1D8E1E8E8A
:100C00001F8E18A219A21AA21BA2DF91CF911F91C9
:100C10000F910895CF92DF92EF92FF920F931F935F
:100C2000CF93DF93EB0124E2FB0111922A95E9F7C0
:100C300044E250E060E070E0488359836A837B833C
:100C4000FC0145815681678170854C835D836E838D
:100C50007F834CE050E060E070E0488759876A8706
:100C60007B872FB7F8944091690150916A01609198
:100C70006B0170916C012FBF488B598B6A8B7B8BFA
:100C800003811481C8010E94F1018823B9F1F801A0
:100C900086818B3098F18D30A0F08551823070F5CF
:100CA000F8016081718176276727762780E090E0E0
:100CB0000E94C80C2DEC3CEC4CEC5DE30E947F0DD7
:100CC00021C0F801618170E080E090E00E94CA0CD0
:100CD0002DEC3CEC4CEC5DE30E947F0D6B017C0144
:100CE000F801608170E080E090E00E94CA0C9B01F6
:100CF000AC01C701B6010E94B60B04C060E070E011
:100D000080EC9FE76C8B7D8B8E8B9F8B81E0DF91DE
:100D1000CF911F910F91FF90EF90DF90CF900895AA
:100D20000F931F93CF93DF938C01EB0188E2DB01DC
:100D30001D928A95E9F7F801838194810E942A0423
:100D400081E090E0A0E0B0E08C879D87AE87BF8710
:100D5000F80185819681A781B085888B998BAA8BB4
:100D6000BB8B8DE090E0A0E0B0E08C8B9D8BAE8BD8
:100D7000BF8BBE01838194810E94B500D801139678
:100D8000ED91FC91149783898C30F1F0A0F48B30B5
:100D900009F048C080E090E0A8E4B2E4888F998F21
:100DA000AA8FBB8F1C8E1D8E1E8E1F8E80E090E042
:100DB000A0E0B0E432C08531E1F0863199F580E001
:100DC00090E0AAEFB2E419C080E090E0A0E7B2E4BE
:100DD000888F998FAA8FBB8F80E090E0A0EAB1EC5A
:100DE0008C8F9D8FAE8FBF8F80E090E0A0E0BFE33F
:100DF00014C080E090E0A0EAB2E4888F998FAA8FB7
:100E0000BB8F80E090E0A0E2B2EC8C8F9D8FAE8F24
:100E1000BF8F8DEC9CECACECBDE388A399A3AAA397
:100E2000BBA30CC0188E198E1A8E1B8E1C8E1D8EA5
:100E30001E8E1F8E18A219A21AA21BA2DF91CF919B
:100E40001F910F9108958F929F92AF92BF92EF9250
:100E5000FF921F93CF93DF93EB0124E2FB011192EA
:100E60002A95E9F744E250E060E070E04883598356
:100E70006A837B83FC0145815681678170854C8341
:100E80005D836E837F834DE050E060E070E04887D3
:100E900059876A877B872FB7F894409169015091F1
:100EA0006A0160916B0170916C012FBF488B598B67
:100EB0006A8B7B8BE380F480C7010E94F101882359
:100EC00009F46BC0F70186818C3009F445C018F431
:100ED0008B30C9F062C08551823008F05EC0F701E6
:100EE0001281612F6F7770E0762F66278381682BE0
:100EF00080E090E00E94C80C2DEC3CEC4CEC5DE3F3
:100F00000E947F0D46C0F701628170E080E090E0B2
:100F10000E94C80C4B015C01F701138117FF0AC046
:100F20009B01AC0160E070E080E89FEB0E94B50B94
:100F30004B015C01612F6F7070E080E090E00E94D7
:100F4000CA0C2DEC3CEC4CEC5DE30E947F0DA5013E
:100F500094010E94B60B25C0F701128163816F7066
:100F600070E080E090E00E94CA0C2DEC3CEC4CEC70
:100F70005DE30E947F0D4B015C01612F70E080E01A
:100F800090E00E94C80C9B01AC01C501B4010E9415
:100F9000B60B17FF06C0905804C060E070E080EC0C
:100FA0009FE76C8B7D8B8E8B9F8B81E0DF91CF9148
:100FB0001F91FF90EF90BF90AF909F908F900895FA
:100FC0000C94890E0C94890E1F920F920FB60F92FB
:100FD00011242F933F938F939F93AF93BF9380914F
:100FE000690190916A01A0916B01B0916C013091FF
:100FF000640123E0230F2D3720F40196A11DB11DBC
:1010000005C026E8230F0296A11DB11D209364019F
:101010008093690190936A01A0936B01B0936C0176
:101020008091650190916601A0916701B09168017E
:101030000196A11DB11D8093650190936601A09357
:101040006701B0936801BF91AF919F918F913F91DC
:101050002F910F900FBE0F901F9018951F920F9217
:101060000FB60F9211242F933F934F935F936F937B
:101070007F938F939F93AF93BF93EF93FF938DE6EF
:1010800091E00E947103FF91EF91BF91AF919F9109
:101090008F917F916F915F914F913F912F910F9021
:1010A0000FBE0F901F9018951F920F920FB60F92C0
:1010B00011242F938F939F93EF93FF93E0917D01E2
:1010C000F0917E018081E0918301F091840182FDA5
:1010D00012C09081809186018F5F8F73209187016C
:1010E000821751F0E0918601F0E0E359FE4F958FB1
:1010F0008093860101C08081FF91EF919F918F9134
:101100002F910F900FBE0F901F901895CF92DF92E6
:10111000EF92FF920F931F93E82FF92F05C0015014
:1011200011092109310961F1908196239417B9F3CE
:1011300005C0015011092109310911F1908196234F
:101140009413F7CFC12CD12CE12CF12C0AC08FEFD6
:10115000C81AD80AE80AF80A0C151D052E053F051D
:1011600079F080818623841791F36C2D7D2D8E2D4F
:101170009F2D1F910F91FF90EF90DF90CF900895DA
:1011800060E070E080E090E01F910F91FF90EF90A1
:10119000DF90CF900895CF93DF93EDE6F1E01382D7
:1011A000128288EE93E0A0E0B0E084839583A6836A
:1011B000B7838AE091E09183808385EC90E0958706
:1011C000848784EC90E09787868780EC90E0918B11
:1011D000808B81EC90E0938B828B82EC90E0958BFE
:1011E000848B86EC90E0978B868B118E128E138EFB
:1011F000148EC0E3D2E08CE090E09D838C838DE080
:1012000090E09F838E8360E08CE00E94560161E055
:101210008E810E945601188A87EE93E0A0E0B0E02C
:101220008C879D87AE87BF87AAE0B2E082E01596E3
:101230008C9315978BE016968C931697E2E0F1E06D
:10124000E4911796EC931797EEEEF0E0E491189680
:10125000EC93189740E85EE360E070E01D964D93D4
:101260005D936D937C93509753968C9353978AE23A
:1012700091E055969C938E9354970A2E1B2E589668
:101280001C920E92112457974FEF5FEFBA015996B7
:101290004D935D936D937C935C978CE191E05E96AA
:1012A0009C938E935D970A2E1B2E91961C920E9204
:1012B0001124909792964D935D936D937C9395979F
:1012C000DF91CF910895CF93DF93CDB7DEB7E1974C
:1012D0000FB6F894DEBF0FBECDBF789484B58260A0
:1012E00084BD84B5816084BD85B5826085BD85B5CA
:1012F000816085BD80916E00816080936E00109248
:1013000081008091810082608093810080918100C2
:101310008160809381008091800081608093800053
:101320008091B10084608093B1008091B0008160B1
:101330008093B00080917A00846080937A008091DD
:101340007A00826080937A0080917A008160809335
:101350007A0080917A00806880937A001092C100B0
:10136000E0917D01F0917E0182E08083E09179013E
:10137000F0917A011082E0917B01F0917C018FEC79
:10138000808310928501E0918101F091820186E0D5
:101390008083E0917F01F091800180818061808372
:1013A000E0917F01F0918001808188608083E091ED
:1013B0007F01F0918001808180688083E0917F01CE
:1013C000F091800180818F7D808362E080910F02A7
:1013D0000E9456012FB7F8948091690190916A019B
:1013E000A0916B01B0916C012FBF805D9740A10966
:1013F000B1098093130290931402A0931502B09345
:10140000160287E380931C02809120028BA78AE258
:1014100091E09AA789A780912102909122029DA72D
:101420008CA78091230290912402A0912502B09173
:1014300026028EA79FA7A8ABB9ABBE016F5F7F4FF7
:10144000CE0189960E949006809129028BA78CE19B
:1014500091E09AA789A780912A0290912B029DA7DB
:101460008CA780912C0290912D02A0912E02B09118
:101470002F028EA79FA7A8ABB9ABBE016F5F7F4FAE
:10148000CE0189960E948C0593E0E92EF12C2AEF7B
:10149000822E26E1922EA12CB12C3AE2C32E31E00D
:1014A000D32E4CE1242E41E0342E109238021092BB
:1014B000390210923A0210923B0260E080913602AB
:1014C0000E940901C7010197F1F761E0809136029E
:1014D0000E94090183E290E00197F1F760E08091BA
:1014E00036020E940901C7010197F1F78091340289
:1014F000909135029927FC01E050FF4F6491FC0167
:10150000E451FF4FE491F0E0EE0FFF1FEE51FF4F6B
:101510008591949100EF19E422E030E0462F0E947B
:101520008608611571058105910549F0DC01CB0143
:101530000196A11DB11D9C01AD015F7003C020E0AB
:1015400030E0A901209338023093390240933A02E7
:1015500050933B02A4E6B0E00E94950BA5019401D4
:101560000E94760B29013A0169E170E080E090E089
:101570000E94B70177FE0EC06DE28DE691E00E94F9
:10158000930366277727CB016419750986099709A4
:101590004AE003C04AE0C301B2010E94770480E63A
:1015A00091E00E94570481E591E00E94570460EDAC
:1015B00077E080E090E00E94B701809120028BA745
:1015C000DAA6C9A680912102909122029DA78CA73C
:1015D0008091230290912402A0912502B0912602CD
:1015E0008EA79FA7A8ABB9ABBE016F5F7F4FCE019F
:1015F00089960E9423076D897E898F89988D9B012A
:10160000AC010E94EC0D882319F08FE990E00DC029
:1016100081E990E00E94E0036D897E898F89988D31
:1016200042E00E94B8048DE890E00E946904809135
:1016300029028BA73AA629A680912A0290912B0213
:101640009DA78CA780912C0290912D02A0912E0233
:10165000B0912F028EA79FA7A8ABB9ABBE016F5F59
:101660007F4FCE0189960E940A066D897E898F89F7
:10167000988D9B01AC010E94EC0D882319F085E741
:1016800090E00DC08AE690E00E94E0036D897E89BB
:101690008F89988D42E00E94B80488E690E00E940D
:1016A00069040E941D0401CFA1E21A2EAA1BBB1BD4
:1016B000FD010DC0AA1FBB1FEE1FFF1FA217B3071E
:1016C000E407F50720F0A21BB30BE40BF50B661F34
:1016D000771F881F991F1A9469F7609570958095F8
:1016E00090959B01AC01BD01CF010895052E97FB9C
:1016F0001EF400940E948D0B57FD07D00E94540BDE
:1017000007FC03D04EF40C948D0B5095409530950A
:1017100021953F4F4F4F5F4F08959095809570955D
:1017200061957F4F8F4F9F4F08950E94A60BA59FF5
:10173000900DB49F900DA49F800D911D11240895CC
:10174000EE0FFF1F0590F491E02D0994A29FB001C8
:10175000B39FC001A39F700D811D1124911DB29FE5
:10176000700D811D1124911D08955058BB27AA2783
:101770000E94CD0B0C94400D0E94320D38F00E9457
:10178000390D20F039F49F3F19F426F40C942F0DF5
:101790000EF4E095E7FB0C94290DE92F0E94510D02
:1017A00058F3BA17620773078407950720F079F496
:1017B000A6F50C94730D0EF4E0950B2EBA2FA02D08
:1017C0000B01B90190010C01CA01A0011124FF27EE
:1017D000591B99F0593F50F4503E68F11A16F040E9
:1017E000A22F232F342F4427585FF3CF46953795E8
:1017F0002795A795F0405395C9F77EF41F16BA0BAD
:10180000620B730B840BBAF09150A1F0FF0FBB1F5A
:10181000661F771F881FC2F70EC0BA0F621F731FA3
:10182000841F48F4879577956795B795F7959E3F00
:1018300008F0B0CF9395880F08F09927EE0F979591
:10184000879508950E94050D08F481E008950E948F
:101850003B0C0C94400D0E94390D58F00E94320D43
:1018600040F029F45F3F29F00C94290D51110C949C
:10187000740D0C942F0D0E94510D68F39923B1F350
:10188000552391F3951B550BBB27AA2762177307A6
:10189000840738F09F5F5F4F220F331F441FAA1F3A
:1018A000A9F335D00E2E3AF0E0E832D091505040F6
:1018B000E695001CCAF72BD0FE2F29D0660F771FA4
:1018C000881FBB1F261737074807AB07B0E809F08A
:1018D000BB0B802DBF01FF2793585F4F3AF09E3F0F
:1018E000510578F00C94290D0C94740D5F3FE4F3CE
:1018F000983ED4F3869577956795B795F7959F5F52
:10190000C9F7880F911D9695879597F90895E1E09D
:10191000660F771F881FBB1F621773078407BA07FC
:1019200020F0621B730B840BBA0BEE1F88F7E09557
:1019300008950E94590D88F09F5798F0B92F992764
:10194000B751B0F0E1F0660F771F881F991F1AF0AA
:10195000BA95C9F714C0B13091F00E94730DB1E08F
:1019600008950C94730D672F782F8827B85F39F08E
:10197000B93FCCF3869577956795B395D9F73EF443
:1019800090958095709561957F4F8F4F9F4F0895EB
:10199000E89409C097FB3EF4909580957095619509
:1019A0007F4F8F4F9F4F9923A9F0F92F96E9BB27BF
:1019B0009395F695879577956795B795F111F8CF3B
:1019C000FAF4BB0F11F460FF1BC06F5F7F4F8F4FA6
:1019D0009F4F16C0882311F096E911C0772321F09C
:1019E0009EE8872F762F05C0662371F096E8862F34
:1019F00070E060E02AF09A95660F771F881FDAF78B
:101A0000880F9695879597F90895990F0008550FB7
:101A1000AA0BE0E8FEEF16161706E807F907C0F074
:101A200012161306E407F50798F0621B730B840B7C
:101A3000950B39F40A2661F0232B242B252B21F456
:101A400008950A2609F4A140A6958FEF811D811DF6
:101A5000089597F99F6780E870E060E008959FEF30
:101A600080EC089500240A94161617061806090635
:101A7000089500240A941216130614060506089504
:101A8000092E0394000C11F4882352F0BB0F40F48C
:101A9000BF2B11F460FF04C06F5F7F4F8F4F9F4FCC
:101AA000089557FD9058440F551F59F05F3F71F04E
:101AB0004795880F97FB991F61F09F3F79F08795B5
:101AC0000895121613061406551FF2CF4695F1DF3E
:101AD00008C0161617061806991FF1CF86957105CE
:101AE000610508940895E894BB2766277727CB0102
:101AF00097F908950E94050D08F48FEF08950E944C
:101B0000920D0C94400D0E94320D38F00E94390D58
:101B100020F0952311F00C94290D0C942F0D112415
:101B20000C94740D0E94510D70F3959FC1F3950FA5
:101B300050E0551F629FF001729FBB27F00DB11D51
:101B4000639FAA27F00DB11DAA1F649F6627B00DE1
:101B5000A11D661F829F2227B00DA11D621F739FCA
:101B6000B00DA11D621F839FA00D611D221F749FD8
:101B70003327A00D611D231F849F600D211D822F1F
:101B8000762F6A2F11249F5750409AF0F1F0882346
:101B90004AF0EE0FFF1FBB1F661F771F881F915073
:101BA0005040A9F79E3F510580F00C94290D0C94EC
:101BB000740D5F3FE4F3983ED4F38695779567956F
:101BC000B795F795E7959F5FC1F7FE2B880F911D9D
:101BD0009695879597F908950E94050D880B990BA6
:101BE00008950F931F93CF93DF938230910510F4E4
:101BF00082E090E0E0914302F091440220E030E086
:101C0000A0E0B0E0309719F1408151810281138149
:101C100048175907C8F08417950769F4109731F0F1
:101C200012960C93129713961C9327C000934302AD
:101C30001093440222C02115310519F042175307B1
:101C400018F49A01BD01EF01DF01F801DBCF211586
:101C50003105F9F0281B390B2430310580F48A81D5
:101C60009B816115710521F0FB019383828304C080
:101C70009093440280934302FE01329644C0FE01D9
:101C8000E20FF31F81939193225031093983288306
:101C90003AC02091410230914202232B41F420911D
:101CA00002013091030130934202209341022091BE
:101CB0000001309101012115310541F42DB73EB7E6
:101CC0004091040150910501241B350BE091410224
:101CD000F0914202E217F307A0F42E1B3F0B2817E6
:101CE000390778F0AC014E5F5F4F2417350748F095
:101CF0004E0F5F1F50934202409341028193919394
:101D000002C0E0E0F0E0CF01DF91CF911F910F9191
:101D10000895CF93DF93009709F481C0FC013297B7
:101D200013821282A0914302B0914402109781F471
:101D300020813181820F931F209141023091420214
:101D40002817390751F5F0934202E093410267C02A
:101D5000ED0120E030E0CE17DF0740F44A815B81DF
:101D60009E0141155105F1F0EA01F5CFD383C283FD
:101D700040815181840F951FC817D90759F4888174
:101D80009981840F951F0296918380838A819B811C
:101D9000938382832115310529F4F0934402E09363
:101DA00043023DC0E901FB83EA8349915991C40F85
:101DB000D51FEC17FD0761F480819181840F951F79
:101DC0000296E90199838883828193819B838A8328
:101DD000E0E0F0E012968D919C911397009719F036
:101DE000FD01DC01F7CF8D919C9111979D012E5F34
:101DF0003F4F820F931F20914102309142022817DA
:101E0000390769F4309729F4109244021092430282
:101E100002C013821282B0934202A0934102DF916A
:101E2000CF91089581E090E0F8940C94260FFB0187
:101E3000DC014150504048F001900D920020C9F75C
:101E400001C01D9241505040E0F70895F894FFCF33
:101E5000000045028000000000009303FC022A03FA
:101E6000FB035B0339034D03000000002704E00778
:101E700029040A068C05000000002804E207290452
:101E8000230790064448543131004448543132000D
:101E90004448543231004448543232004448543F9C
:101EA000000D0A006E616E00696E66006F76660056
:041EB000636D00005E
:00000001FF
