:100000000C948E000C94B6000C94B6000C94B600C0
:100010000C94B6000C94B6000C94B6000C94B60088
:100020000C94B6000C94B6000C94B6000C94B60078
:100030000C94B6000C94B6000C94B6000C94B60068
:100040000C9486030C94B6000C942F040C940904B1
:100050000C94B6000C94B6000C94B6000C94B60048
:100060000C94B6000C94B600202500204300250017
:1000700048756D69646974793A20004572726F72CF
:100080002072656164696E672068756D6964697462
:10009000792100C2B0430054656D7065726174755A
:1000A00072653A20004572726F72207265616469F0
:1000B0006E672074656D706572617475726521007C
:1000C00000000000240027002A0000000000250096
:1000D00028002B00000000080002010000030407B4
:1000E00000000000000000000000000023002600C7
:1000F00029000404040404040404020202020202AB
:1001000003030303030301020408102040800102DB
:1001100004081020010204081020930C11241FBEB3
:10012000CFEFD8E0DEBFCDBF11E0A0E0B1E0E2E16B
:10013000F2E202C005900D92A239B107D9F722E090
:10014000A2E9B1E001C01D92A339B207E1F710E0C6
:10015000CEE8D0E004C02197FE010E94050ECD3804
:10016000D107C9F70E94F4090C9407110C94000000
:10017000CF92DF92EF92FF920F931F93CF93DF9373
:100180006C017A018B01C0E0D0E0CE15DF0581F073
:10019000D8016D918D01D601ED91FC910190F08116
:1001A000E02DC6010995892B11F02196EECF7E0135
:1001B000C701DF91CF911F910F91FF90EF90DF90DA
:1001C000CF900895089580E090E008950895CF932A
:1001D000DF93EC0160E08E810E94DC0661E08E819D
:1001E0000E94DC0660E08E810E94DC068BE891E0D4
:1001F0000197F1F7DF91CF9108950E94F31083EA00
:1002000091E00E94570521E0892B09F420E0822F1C
:1002100008950F931F93CF93DF938C01EB0188E236
:10022000DB011D928A95E9F7F801838194810E9490
:100230008A0581E090E0A0E0B0E08C879D87AE87E2
:10024000BF87F80185819681A781B085888B998BBE
:10025000AA8BBB8B8CE090E0A0E0B0E08C8B9D8BF8
:10026000AE8BBF8BBE01838194810E947305D80140
:100270001396ED91FC91149783898C3069F038F4D2
:100280008B30A1F580E090E0A0EAB2E409C08531AE
:10029000C1F08631B1F02AC080E090E0AEEBB2E46C
:1002A000888F998FAA8FBB8F80E090E0A0EAB1E49D
:1002B0008C8F9D8FAE8FBF8F80E090E0A0EAB0E47E
:1002C00010C080E090E0A8ECB2E4888F998FAA8FEC
:1002D000BB8F1C8E1D8E1E8E1F8E8DEC9CECACEC8D
:1002E000BDE388A399A3AAA3BBA30CC0188E198E43
:1002F0001A8E1B8E1C8E1D8E1E8E1F8E18A219A28A
:100300001AA21BA2DF91CF911F910F9108950F9315
:100310001F93CF93DF938C01EB0188E2DB011D92E9
:100320008A95E9F7F801838194810E948A0581E02A
:1003300090E0A0E0B0E08C879D87AE87BF87F80192
:1003400085819681A781B085888B998BAA8BBB8B81
:100350008DE090E0A0E0B0E08C8B9D8BAE8BBF8BEE
:10036000BE01838194810E947305D8011396ED919B
:10037000FC91149783898C30F1F0A0F48B3009F054
:1003800048C080E090E0A8E4B2E4888F998FAA8FFB
:10039000BB8F1C8E1D8E1E8E1F8E80E090E0A0E015
:1003A000B0E432C08531E1F0863199F580E090E02B
:1003B000AAEFB2E419C080E090E0A0E7B2E4888F31
:1003C000998FAA8FBB8F80E090E0A0EAB1EC8C8F70
:1003D0009D8FAE8FBF8F80E090E0A0E0BFE314C0A0
:1003E00080E090E0A0EAB2E4888F998FAA8FBB8F5B
:1003F00080E090E0A0E2B2EC8C8F9D8FAE8FBF8F3B
:100400008DEC9CECACECBDE388A399A3AAA3BBA3A1
:100410000CC0188E198E1A8E1B8E1C8E1D8E1E8E71
:100420001F8E18A219A21AA21BA2DF91CF911F91B1
:100430000F910895CF92DF92EF92FF920F931F9347
:10044000CF93DF93EB0124E2FB0111922A95E9F7A8
:1004500044E250E060E070E0488359836A837B8324
:10046000FC0145815681678170854C835D836E8375
:100470007F834CE050E060E070E0488759876A87EE
:100480007B872FB7F89440919F015091A001609114
:10049000A1017091A2012FBF488B598B6A8B7B8B76
:1004A00003811481C8010E94A4088823B9F1F801CE
:1004B00086818B3098F18D30A0F08551823070F5B7
:1004C000F8016081718176276727762780E090E0C8
:1004D0000E94AE0E2DEC3CEC4CEC5DE30E943C0F18
:1004E00021C0F801618170E080E090E00E94B00ED0
:1004F0002DEC3CEC4CEC5DE30E943C0F6B017C016D
:10050000F801608170E080E090E00E94B00E9B01F5
:10051000AC01C701B6010E940C0E04C060E070E09F
:1005200080EC9FE76C8B7D8B8E8B9F8B81E0DF91C6
:10053000CF911F910F91FF90EF90DF90CF90089592
:100540008F929F92AF92BF92EF92FF921F93CF93A1
:10055000DF93EB0124E2FB0111922A95E9F744E2D3
:1005600050E060E070E0488359836A837B83FC013C
:1005700045815681678170854C835D836E837F835F
:100580004DE050E060E070E0488759876A877B87DC
:100590002FB7F89440919F015091A0016091A10163
:1005A0007091A2012FBF488B598B6A8B7B8BE380A4
:1005B000F480C7010E94A408882309F46BC0F701E6
:1005C00086818C3009F445C018F48B30C9F062C0C4
:1005D0008551823008F05EC0F7011281612F6F777C
:1005E00070E0762F66278381682B80E090E00E9480
:1005F000AE0E2DEC3CEC4CEC5DE30E943C0F46C093
:10060000F701628170E080E090E00E94AE0E4B0145
:100610005C01F701138117FF0AC09B01AC0160E088
:1006200070E080E89FEB0E940B0E4B015C01612F94
:100630006F7070E080E090E00E94B00E2DEC3CEC1A
:100640004CEC5DE30E943C0FA50194010E940C0E4E
:1006500025C0F701128163816F7070E080E090E047
:100660000E94B00E2DEC3CEC4CEC5DE30E943C0F84
:100670004B015C01612F70E080E090E00E94AE0EC3
:100680009B01AC01C501B4010E940C0E17FF06C00E
:10069000905804C060E070E080EC9FE76C8B7D8B2D
:1006A0008E8B9F8B81E0DF91CF911F91FF90EF9018
:1006B000BF90AF909F908F9008950C946A100C9407
:1006C0006A103FB7F89480919B0190919C01A09192
:1006D0009D01B0919E0126B5A89B05C02F3F19F042
:1006E0000196A11DB11D3FBFBA2FA92F982F8827B2
:1006F000820F911DA11DB11DBC01CD0142E0660F0D
:10070000771F881F991F4A95D1F708951F920F925E
:100710000FB60F9211242F933F938F939F93AF9314
:10072000BF9380919F019091A001A091A101B091F0
:10073000A20130919A0123E0230F2D3720F4019676
:10074000A11DB11D05C026E8230F0296A11DB11DF4
:1007500020939A0180939F019093A001A093A101FF
:10076000B093A20180919B0190919C01A0919D0169
:10077000B0919E010196A11DB11D80939B019093A4
:100780009C01A0939D01B0939E01BF91AF919F9159
:100790008F913F912F910F900FBE0F901F90189542
:1007A000EF92FF920F931F93CF93DF938C017B0106
:1007B000C0E0D0E0F701EC0FFD1F6491662361F00B
:1007C000D801ED91FC910190F081E02DC8010995CF
:1007D000892B11F02196EECFCE01DF91CF911F91A1
:1007E0000F91FF90EF9008956115710579F0FB016D
:1007F00001900020E9F73197AF01461B570BDC0150
:10080000ED91FC910280F381E02D099480E090E06D
:1008100008951F920F920FB60F9211242F933F93BA
:100820004F935F936F937F938F939F93AF93BF93F8
:10083000EF93FF9383EA91E00E944B06FF91EF91C3
:10084000BF91AF919F918F917F916F915F914F91E8
:100850003F912F910F900FBE0F901F9018951F92F0
:100860000F920FB60F9211242F938F939F93EF93B4
:10087000FF93E091B301F091B4018081E091B9015F
:10088000F091BA0182FD12C090818091BC018F5F0E
:100890008F732091BD01821751F0E091BC01F0E00F
:1008A000ED55FE4F958F8093BC0101C08081FF9173
:1008B000EF919F918F912F910F900FBE0F901F90EE
:1008C0001895CF92DF92EF92FF920F931F93CF93E1
:1008D000DF936C017C0187E0E80EF11CC0E0D0E002
:1008E000062F10E0B8010C2E02C0759567950A948A
:1008F000E2F76170F70181917F010E94DC06219689
:10090000C430D10579F7C601DF91CF911F910F91C6
:10091000FF90EF90DF90CF900C94E700CF92DF92A2
:10092000EF92FF920F931F93CF93DF93EC01F62E7C
:10093000642F8C810E94DC068D818F3F19F060E06E
:100940000E94DC068F850F2D10E084FF25C06E010C
:1009500087E0C80ED11CE12CF12CB8010E2C02C08E
:10096000759567950A94E2F76170F60181916F01C0
:100970000E94DC06FFEFEF1AFF0A88E0E816F10498
:1009800061F7CE01DF91CF911F910F91FF90EF9012
:10099000DF90CF900C94E700B80184E075956795DF
:1009A0008A95E1F7CE010E9461046F2DCE01DF919F
:1009B000CF911F910F91FF90EF90DF90CF900C940B
:1009C000610441E00E948E0481E090E00895089562
:1009D0000895CF92DF92EF92FF921F93CF93DF9310
:1009E000EC011F81662311F0912F01C090E0288552
:1009F00030E0220F331F28513F4FA0E0B0E0F90153
:100A000045915491FA0180818123AD0160E070E04D
:100A100089130FC01196CD84DE84EF84F8884C15BD
:100A20005D056E057F0558F33FEF2FEF8FEF9FEFCA
:100A300003C03A2F252FCB01632F722FDF91CF9167
:100A40001F91FF90EF90DF90CF900895FC01538DA0
:100A5000448D252F30E0842F90E0821B930B541798
:100A600010F0CF96089501970895FC01918D828D25
:100A7000981761F0828DDF01A80FB11D5D968C91F2
:100A8000928D9F5F9F73928F90E008958FEF9FEFFD
:100A90000895FC01918D828D981731F0828DE80FB9
:100AA000F11D858D90E008958FEF9FEF0895FC0173
:100AB000918D228D892F90E0805C9F4F821B910940
:100AC0008F739927089580E090E0892B29F00E9488
:100AD000FF0081110C940000089540E0682F80E42D
:100AE00092E00C948E04FB01DC0153968C918C30C7
:100AF00041F038F48B3029F480E492E4AFE0B0E0C8
:100B000004C080E894E8AEE1B0E084A395A3A6A376
:100B1000B7A30895CF93DF93EB01FC0183898C3059
:100B200089F038F48B30C1F44BE050E065E771E0B8
:100B300017C0853161F0863179F44BE050E067E809
:100B400071E00EC04BE050E06BE771E009C04BE094
:100B500050E061E871E004C04BE050E06DE871E006
:100B6000CE010E94F8101B86DF91CF9108954F921D
:100B70005F926F927F928F929F92AF92BF92CF922D
:100B8000DF92EF92FF920F931F93CF93DF93CDB736
:100B9000DEB7A1970FB6F894DEBF0FBECDBF8C01B4
:100BA0006A017B0177FF2FC0DC01ED91FC91019080
:100BB000F081E02D6DE209955C0122273327A90120
:100BC0002C193D094E095F0919A2FE01B1967F015A
:100BD0009AE0492E512C612C712CCA01B901A30154
:100BE00092010E94D40D605DD7016E937D012115A5
:100BF00031054105510589F7BD01C8010E94F40383
:100C00008A0D9B1D1EC09A01AB0119A2FE01B1966F
:100C10007F018AE0882E912CA12CB12CCA01B90148
:100C2000A50194010E94D40D605DD7016E937D01F2
:100C3000211531054105510589F7BD01C8010E9403
:100C4000F403A1960FB6F894DEBF0FBECDBFDF91BF
:100C5000CF911F910F91FF90EF90DF90CF90BF90B9
:100C6000AF909F908F907F906F905F904F9008957E
:100C7000CF93DF93BC0183EA91E00E94D003EC01A3
:100C800065E671E083EA91E00E94F4038C0F9D1FFA
:100C9000DF91CF910895FC01848DDF01A80FB11D74
:100CA000A35ABF4F2C91848D90E001968F739927A2
:100CB000848FA689B7892C93A089B1898C91837080
:100CC00080648C93938D848D981306C00288F38979
:100CD000E02D80818F7D80830895EF92FF920F93A6
:100CE0001F93CF93DF93EC0181E0888F9B8D8C8DD8
:100CF000981305C0E889F989808185FD26C0F62E04
:100D00000B8D10E00F5F1F4F0F731127E02E8C8D9E
:100D1000E8120CC00FB607FCFACFE889F989808188
:100D200085FFF5CFCE010E944B06F1CF8B8DFE01E2
:100D3000E80FF11DE35AFF4FF0829FB7F8940B8F35
:100D4000EA89FB89808180620AC09FB7F894EE89A6
:100D5000FF896083E889F98980818370806480835A
:100D60009FBF81E090E0DF91CF911F910F91FF90A5
:100D7000EF900895CF93DF93EC01888D8823C9F01D
:100D8000EA89FB89808185FD05C0A889B9898C9194
:100D900086FD0FC00FB607FCF5CF808185FFF2CF2F
:100DA000A889B9898C9185FFEDCFCE010E944B06B1
:100DB000E7CFDF91CF91089590E0FC01EC52FF4F17
:100DC0002491FC01EA5FFE4F3491FC01EE50FF4F8D
:100DD000E491EE2309F43CC0222339F1233091F051
:100DE00038F42130A9F0223001F584B58F7D12C08E
:100DF000273091F02830A1F02430B9F480918000A0
:100E00008F7D03C0809180008F77809380000DC01C
:100E100084B58F7784BD09C08091B0008F7703C0FF
:100E20008091B0008F7D8093B000F0E0EE0FFF1F47
:100E3000E653FF4FA591B4919FB7F894611104C098
:100E40008C913095382302C0EC913E2B3C939FBF90
:100E50000895CF93DF9390E0FC01EA5FFE4F249169
:100E6000FC01EE50FF4F8491882361F190E0880FE0
:100E7000991FFC01E054FF4FC591D491FC01E6534A
:100E8000FF4FA591B491611109C09FB7F894888173
:100E9000209582238883EC912E230BC0623061F46D
:100EA0009FB7F8948881322F309583238883EC9103
:100EB0002E2B2C939FBF06C08FB7F894E8812E2B62
:100EC00028838FBFDF91CF910895CF93DF93823036
:100ED00028F090914F02986090934F0280935302B4
:100EE0001092540280E48093550280E18093560270
:100EF00080E58093570261E0809144020E942907B7
:100F0000809145028F3F19F061E00E94290761E05E
:100F1000809146020E942907C0E4D2E09E0120543D
:100F2000324080914F0284FD03C084E090E002C013
:100F300088E090E02196281739072CF461E08E8133
:100F40000E942907EBCF8BE39DE00197F1F760E06A
:100F5000809144020E94DC0660E0809146020E947B
:100F6000DC06809145028F3F19F060E00E94DC06AC
:100F700080914F0284FD20C063E080E492E00E94F3
:100F80006104CBE4D6E4CE010197F1F763E080E49D
:100F900092E00E9461042197F1F763E080E492E01F
:100FA0000E94610483E592E00197F1F762E080E43A
:100FB00092E00E94610415C080620E946D058BE47E
:100FC00096E40197F1F780914F0280620E946D05CF
:100FD00083E592E00197F1F780914F0280620E94D1
:100FE0006D0580914F0280620E946D0584E08093C0
:100FF00050028CE00E946D0581E00E946D058BE33C
:101000009FE10197F1F782E08093510286E0DF9142
:10101000CF910C946D051F93CF93DF93182FEB01A5
:1010200061E00E942907209711F460E004C0CF3FDF
:10103000D10539F461E0812FDF91CF911F910C949C
:10104000DC06E12FF0E0EC52FF4FE491E330F9F0E1
:1010500048F4E130B9F0E230A1F584B5806284BD96
:10106000C8BD34C0E730E9F0E83019F1E43049F5A3
:1010700080918000806280938000D0938B00C09329
:101080008A0024C084B5806884BDC7BD1FC080911C
:101090008000806880938000D0938900C09388008E
:1010A00015C08091B00080688093B000C093B300F9
:1010B0000DC08091B00080628093B000C093B400F6
:1010C00005C0C038D1050CF0B5CFAFCFDF91CF91BF
:1010D0001F9108958F929F92AF92BF92CF92DF920D
:1010E000EF92FF926B017C010E9461034B015C0156
:1010F000C114D104E104F104F1F00E946103DC01A8
:10110000CB0188199909AA09BB09883E9340A1051A
:10111000B10570F321E0C21AD108E108F10888EEA8
:10112000880E83E0981EA11CB11CC114D104E104F7
:10113000F10419F7DDCFFF90EF90DF90CF90BF90D3
:10114000AF909F908F9008958F929F92AF92BF9291
:10115000CF92DF92EF92FF920F931F93CF93DF9383
:10116000CDB7DEB7C054D1400FB6F894DEBF0FBE86
:10117000CDBF2FB7F89440919F015091A00160918D
:10118000A1017091A2012FBFFC0101851285238569
:1011900034856A017B01C01AD10AE20AF30AE0ED44
:1011A000CE16E7E0DE06E104F10418F4FC018189C3
:1011B000C2C08C01FC014187528763877487148207
:1011C000138212821182108262E085810E942907B7
:1011D00061E070E080E090E00E946A0861E0F80160
:1011E00085810E94290760E0F80185810E94DC0664
:1011F000F80186818551823028F48BE291E10197D4
:10120000F1F706C064E170E080E090E00E946A08B7
:1012100062E0F80185810E942907F801828990E047
:101220008230910538F0880F991F880F991F059714
:101230000197F1F7F89460E0C8010E94E9046F3F5C
:101240007F4F8F4F9F4F21F4F801118A789444C04B
:1012500061E0C8010E94E9046F3F7F4F8F4F9F4FAD
:1012600099F3CE0101967C015E019FEBA91A9EEFD6
:10127000B90A670160E0C8010E94E904F6016083D1
:1012800071838283938361E0C8010E94E904F601BF
:101290006483758386839783F8E0CF0ED11CCA14CC
:1012A000DB0441F7789420E030E0F7018080918002
:1012B000A280B3804481558166817781FFEF8F16CC
:1012C0009F06AF06BF0631F04F3F8FEF5807680704
:1012D000780721F4F801118A80E02DC0F90183E03C
:1012E000F595E7958A95E1F7E00FF11F8081880F6A
:1012F00084169506A606B70608F4816080832F5FE2
:101300003F4FF8E0EF0EF11C2832310571F6F8017D
:10131000248130E04081818190E0840F911D4281E1
:10132000840F911D4381840F911D99272817390738
:1013300089F681E0818BC05CDE4F0FB6F894DEBF8A
:101340000FBECDBFDF91CF911F910F91FF90EF9016
:10135000DF90CF90BF90AF909F908F900895CF92E5
:10136000DF92EF92FF920F931F93E82FF92F05C0A2
:10137000015011092109310961F1908196239417D7
:10138000B9F305C0015011092109310911F190810A
:1013900096239413F7CFC12CD12CE12CF12C0AC049
:1013A0008FEFC81AD80AE80AF80A0C151D052E0591
:1013B0003F0579F080818623841791F36C2D7D2D74
:1013C0008E2D9F2D1F910F91FF90EF90DF90CF906A
:1013D000089560E070E080E090E01F910F91FF9031
:1013E000EF90DF90CF900895CF93DF93CDB7DEB726
:1013F000E1970FB6F894DEBF0FBECDBF789484B5E9
:10140000826084BD84B5816084BD85B5826085BD00
:1014100085B5816085BD80916E00816080936E008E
:101420001092810080918100826080938100809180
:101430008100816080938100809180008160809331
:1014400080008091B10084608093B1008091B000F1
:1014500081608093B00080917A00846080937A00EC
:1014600080917A00826080937A0080917A00816016
:1014700080937A0080917A00806880937A0010923D
:10148000C10061E083E00E94290761E085E00E94DD
:10149000290761E086E00E94290760E083E00E945E
:1014A000DC0661E085E00E94DC0661E086E00E94E7
:1014B000DC0662E080915D020E9429072FB7F89454
:1014C00080919F019091A001A091A101B091A201F2
:1014D0002FBF805D9740A109B1098093610290936D
:1014E0006202A0936302B093640287E380936A026E
:1014F00080916E028BA78AE391E09AA789A78091D9
:101500006F02909170029DA78CA7809171029091BB
:101510007202A0917302B09174028EA79FA7A8AB2C
:10152000B9ABBE016F5F7F4FCE0189960E948701E4
:10153000809177028BA78CE291E09AA789A780918E
:101540007802909179029DA78CA780917A02909160
:101550007B02A0917C02B0917D028EA79FA7A8ABD1
:10156000B9ABBE016F5F7F4FCE0189960E94090122
:1015700082E00E94650762E571E080E492E00E94EB
:10158000F40393E0E92EF12C2AEF822E26E1922E2D
:10159000A12CB12C33243A943CE2C32E31E0D32E5B
:1015A00040E4242E10928602109287021092880244
:1015B0001092890260E0809184020E94DC06C701DB
:1015C0000197F1F761E0809184020E94DC0683E2DA
:1015D00090E00197F1F760E0809184020E94DC06C0
:1015E000C7010197F1F780918202909183029927B8
:1015F000FC01EA5FFE4F6491FC01EE50FF4FE49165
:10160000F0E0EE0FFF1FE851FF4F8591949100EF3E
:1016100019E422E030E0462F0E94AF096115710500
:101620008105910549F0DC01CB010196A11DB11D99
:101630009C01AD015F7003C020E030E0A901209360
:101640008602309387024093880250938902A4E671
:10165000B0E00E94C10DA50194010E94A20D2901D4
:101660003A0169E170E080E090E00E946A084092EF
:101670009601509297016092980170929901B3017E
:10168000A20183EA91E00E94B70562E671E083EA75
:1016900091E00E94F40365E671E083EA91E00E9424
:1016A000F40364EF71E080E090E00E946A080E9419
:1016B000920D389EB001399E700D112483E00E9476
:1016C0000B080E94920D389EB001399E700D1124B6
:1016D00085E00E940B080E94920D389EB001399E51
:1016E000700D112486E00E940B0880916E028BA77A
:1016F0008AE391E09AA789A780916F029091700286
:101700009DA78CA78091710290917202A0917302A3
:10171000B09174028EA79FA7A8ABB9ABBE016F5F53
:101720007F4FCE0189960E94A0026D897E898F89A4
:10173000988D9B01AC010E94A90F882319F085EABE
:1017400090E01CC067E970E083EA91E00E94D0035A
:101750006D897E898F89988D0E94780EAB01BC01BE
:10176000409392015093930160939401709395017B
:1017700083EA91E00E94B70583E990E00E94380671
:10178000809177028BA7DAA6C9A680917802909102
:1017900079029DA78CA780917A0290917B02A091FB
:1017A0007C02B0917D028EA79FA7A8ABB9ABBE010A
:1017B0006F5F7F4FCE0189960E941A026D897E89E4
:1017C0008F89988D9B01AC010E94A90F882319F085
:1017D0008BE790E014C060E770E083EA91E00E943C
:1017E000D0036D897E898F89988D0E94780EAB0118
:1017F000BC0183EA91E00E94B7058EE690E00E946A
:10180000380681E00E946D058BE39FE10197F1F7B7
:10181000E1E0809153028111E0E0E195F0E0E05CCD
:10182000FD4F848980680E946D0568E671E080E460
:1018300092E00E94F40340919201509193016091D3
:1018400094017091950180E492E00E94B7056BE6E7
:1018500070E080E492E00E94D0036BE671E080E4E7
:1018600092E00E94F4036FE671E080E492E00E944F
:10187000F403409192015091930160919401709111
:10188000950180E492E00E94B70568E670E080E48C
:1018900092E00E94D003E0915302E23010F4E15054
:1018A00001C0E1E0F0E0E05CFD4F848980680E94C7
:1018B0006D0562E771E080E492E00E94F4034091DC
:1018C000960150919701609198017091990180E47F
:1018D00092E00E94B70562E671E080E492E00E9427
:1018E000F4036BE671E080E492E00E94F40320923E
:1018F0007C0080917A00806480937A0080917A00E5
:1019000086FDFCCF409178008091790050E0582B03
:10191000052E000C660B770B80E492E00E94B70561
:101920000E9463053FCECF93DF93E3EAF1E0138299
:10193000128288EE93E0A0E0B0E084839583A683D2
:10194000B7838EE091E09183808385EC90E095876A
:10195000848784EC90E09787868780EC90E0918B79
:10196000808B81EC90E0938B828B82EC90E0958B66
:10197000848B86EC90E0978B868B118E128E138E63
:10198000148ECEE7D2E08CE090E09D838C838DE0D6
:1019900090E09F838E8360E08CE00E94290761E0E5
:1019A0008E810E942907188A87EE93E0A0E0B0E0BC
:1019B0008C879D87AE87BF87A8E5B2E082E0159649
:1019C0008C9315978BE016968C931697E8E0F1E0D0
:1019D000E4911796EC931797E4EFF0E0E4911896F2
:1019E000EC93189740E85EE360E070E01D964D933D
:1019F0005D936D937C93509753968C9353972AE302
:101A000031E055963C932E9354970A2E1B2E5896F0
:101A10001C920E92112457974FEF5FEFBA0159961F
:101A20004D935D936D937C935C972CE231E05E96D1
:101A30003C932E935D970A2E1B2E91961C920E922C
:101A40001124909792964D935D936D937C93959707
:101A5000E0E4F2E01382128220E231E0318320835D
:101A600014829FEF958397E0968398E0978399E09F
:101A700090879AE09187828713861486158616864A
:101A8000178681E0DF91CF910C9465078F929F922A
:101A9000AF92BF92CF92DF92EF92FF92CF93DF93FC
:101AA000EC01688179818A819B81611571058105CD
:101AB000910521F464E279ED8BE597E02DE133EFB8
:101AC00041E050E00E94A20D49015A019B01AC0186
:101AD000A7EAB1E40E94C10D6B017C01ACEEB4EF4A
:101AE000A50194010E94CF0DDC01CB018C0D9D1D41
:101AF000AE1DBF1DB7FF03C00197A109B048888381
:101B00009983AA83BB839F77DF91CF91FF90EF905A
:101B1000DF90CF90BF90AF909F908F9008950E94DC
:101B2000460D089580E091E00E94460D0895A0E0E2
:101B3000B0E08093000190930101A0930201B09363
:101B400003010895052E97FB1EF400940E94B90D21
:101B500057FD07D00E94D40D07FC03D04EF40C941F
:101B6000B90D50954095309521953F4F4F4F5F4FA0
:101B7000089590958095709561957F4F8F4F9F4FF9
:101B800008950E94F60DA59F900DB49F900DA49FFF
:101B9000800D911D11240895B7FF0C94C10D0E9472
:101BA000C10D821B930B0895A1E21A2EAA1BBB1B29
:101BB000FD010DC0AA1FBB1FEE1FFF1FA217B30719
:101BC000E407F50720F0A21BB30BE40BF50B661F2F
:101BD000771F881F991F1A9469F7609570958095F3
:101BE00090959B01AC01BD01CF010895A29FB0016A
:101BF000B39FC001A39F700D811D1124911DB29F41
:101C0000700D811D1124911D0895EE0FFF1F059089
:101C1000F491E02D09945058BB27AA270E94230E67
:101C20000C94020F0E94F40E38F00E94FB0E20F07C
:101C300039F49F3F19F426F40C94F10E0EF4E0955C
:101C4000E7FB0C94EB0EE92F0E94130F58F3BA1721
:101C5000620773078407950720F079F4A6F50C94C2
:101C6000350F0EF4E0950B2EBA2FA02D0B01B90104
:101C700090010C01CA01A0011124FF27591B99F002
:101C8000593F50F4503E68F11A16F040A22F232F0E
:101C9000342F4427585FF3CF469537952795A7955E
:101CA000F0405395C9F77EF41F16BA0B620B730B05
:101CB000840BBAF09150A1F0FF0FBB1F661F771F76
:101CC000881FC2F70EC0BA0F621F731F841F48F42B
:101CD000879577956795B795F7959E3F08F0B0CFB4
:101CE0009395880F08F09927EE0F9795879508959B
:101CF0000E947F0E6894B1110C94360F08950E94D3
:101D00001B0F88F09F5798F0B92F9927B751B0F063
:101D1000E1F0660F771F881F991F1AF0BA95C9F76F
:101D200014C0B13091F00E94350FB1E008950C94C9
:101D3000350F672F782F8827B85F39F0B93FCCF37C
:101D4000869577956795B395D9F73EF490958095EC
:101D5000709561957F4F8F4F9F4F0895E89409C00C
:101D600097FB3EF490958095709561957F4F8F4FCE
:101D70009F4F9923A9F0F92F96E9BB279395F695E4
:101D8000879577956795B795F111F8CFFAF4BB0F62
:101D900011F460FF1BC06F5F7F4F8F4F9F4F16C0C6
:101DA000882311F096E911C0772321F09EE8872F50
:101DB000762F05C0662371F096E8862F70E060E00C
:101DC0002AF09A95660F771F881FDAF7880F969585
:101DD000879597F9089597F99F6780E870E060E02C
:101DE00008959FEF80EC089500240A9416161706B4
:101DF00018060906089500240A94121613061406FC
:101E000005060895092E0394000C11F4882352F05E
:101E1000BB0F40F4BF2B11F460FF04C06F5F7F4F16
:101E20008F4F9F4F089557FD9058440F551F59F0FD
:101E30005F3F71F04795880F97FB991F61F09F3FB7
:101E400079F087950895121613061406551FF2CFE0
:101E50004695F1DF08C0161617061806991FF1CF30
:101E600086957105610508940895E894BB27662757
:101E70007727CB0197F908950E944F0F0C94020F1A
:101E80000E94F40E38F00E94FB0E20F0952311F012
:101E90000C94EB0E0C94F10E11240C94360F0E944E
:101EA000130F70F3959FC1F3950F50E0551F629F7C
:101EB000F001729FBB27F00DB11D639FAA27F00DA3
:101EC000B11DAA1F649F6627B00DA11D661F829FCA
:101ED0002227B00DA11D621F739FB00DA11D621FAF
:101EE000839FA00D611D221F749F3327A00D611DCC
:101EF000231F849F600D211D822F762F6A2F1124AE
:101F00009F5750409AF0F1F088234AF0EE0FFF1FE0
:101F1000BB1F661F771F881F91505040A9F79E3F37
:101F2000510580F00C94EB0E0C94360F5F3FE4F3F8
:101F3000983ED4F3869577956795B795F795E7958D
:101F40009F5FC1F7FE2B880F911D9695879597F996
:101F500008950E94AE0F880B990B0895990F000801
:101F6000550FAA0BE0E8FEEF16161706E807F9076B
:101F7000C0F012161306E407F50798F0621B730B06
:101F8000840B950B39F40A2661F0232B242B252B87
:101F900021F408950A2609F4A140A6958FEF811D2A
:101FA000811D08950F931F93CF93DF938230910586
:101FB00010F482E090E0E0919102F091920220E032
:101FC00030E0A0E0B0E0309719F14081518102810A
:101FD000138148175907C8F08417950769F41097BB
:101FE00031F012960C93129713961C9327C000930E
:101FF00091021093920222C02115310519F0421767
:10200000530718F49A01BD01EF01DF01F801DBCF9E
:1020100021153105F9F0281B390B2430310580F4E6
:102020008A819B816115710521F0FB019383828375
:1020300004C09093920280939102FE01329644C0B4
:10204000FE01E20FF31F81939193225031093983EE
:1020500028833AC020918F0230919002232B41F4C3
:1020600020910601309107013093900220938F0256
:1020700020910401309105012115310541F42DB75E
:102080003EB74091080150910901241B350BE091A6
:102090008F02F0919002E217F307A0F42E1B3F0B82
:1020A0002817390778F0AC014E5F5F4F24173507CA
:1020B00048F04E0F5F1F5093900240938F02819320
:1020C000919302C0E0E0F0E0CF01DF91CF911F914A
:1020D0000F910895CF93DF93009709F481C0FC011D
:1020E000329713821282A0919102B09192021097BE
:1020F00081F420813181820F931F20918F023091D2
:1021000090022817390751F5F0939002E0938F025F
:1021100067C0ED0120E030E0CE17DF0740F44A81D0
:102120005B819E0141155105F1F0EA01F5CFD383A2
:10213000C28340815181840F951FC817D90759F474
:1021400088819981840F951F0296918380838A816B
:102150009B81938382832115310529F4F0939202A8
:10216000E09391023DC0E901FB83EA8349915991D3
:10217000C40FD51FEC17FD0761F480819181840F96
:10218000951F0296E90199838883828193819B83BD
:102190008A83E0E0F0E012968D919C91139700976E
:1021A00019F0FD01DC01F7CF8D919C9111979D01F4
:1021B0002E5F3F4F820F931F20918F02309190022C
:1021C0002817390769F4309729F410929202109277
:1021D000910202C013821282B0939002A0938F02E8
:1021E000DF91CF91089581E090E0F8940C9407116D
:1021F000FB01DC014150504048F001900D9200205D
:10220000C9F701C01D9241505040E0F70895F8947D
:02221000FFCFFE
:1022120001000000000093028000000000006D0633
:10222200B8002605BA065705350549050000000025
:10223200E104B800E300E20000000000E7045D03EF
:10224200E6001A02090100000000E8045F03E6004C
:10225200A00287010000000000000000E600FD006F
:10226200FD00496E697469616C6974696E672E2E2E
:102272002E00636D000D0A00543D0020202000480E
:102282003D00443D00444854313100444854313209
:1022920000444854323100444854323200444854D5
:0222A2003F00FB
:00000001FF
