:100000000C9462000C948A000C948A000C948A0070
:100010000C948A000C948A000C948A000C948A0038
:100020000C948A000C948A000C948A000C948A0028
:100030000C948A000C948A000C948A000C948A0018
:100040000C945C020C948A000C94CC020C94A602D2
:100050000C948A000C948A000C948A000C948A00F8
:100060000C948A000C948A000000000023002600F3
:10007000290000000008000201000003040700003E
:1000800000000000000000000000250028002B00F8
:1000900000000000240027002A00040404040404D3
:1000A0000404020202020202030303030303010227
:1000B00004081020408001020408102001020408F6
:1000C0001020430311241FBECFEFD8E0DEBFCDBF09
:1000D00011E0A0E0B1E0E4E2FBE002C005900D9287
:1000E000A831B107D9F721E0A8E1B1E001C01D9224
:1000F000AF3CB207E1F710E0C2E6D0E004C02197C0
:10010000FE010E947605C136D107C9F70E94E603B9
:100110000C9490050C94000090E0FC01EE58FF4F09
:100120002491FC01E255FF4F3491FC01E656FF4F4C
:10013000E491EE2309F43CC0222339F1233091F0FD
:1001400038F42130A9F0223001F584B58F7D12C03A
:10015000273091F02830A1F02430B9F4809180004C
:100160008F7D03C0809180008F77809380000DC0C9
:1001700084B58F7784BD09C08091B0008F7703C0AC
:100180008091B0008F7D8093B000F0E0EE0FFF1FF4
:10019000EA57FF4FA591B4919FB7F894611104C03D
:1001A0008C913095382302C0EC913E2B3C939FBF3D
:1001B00008953FB7F89480911D0190911E01A09180
:1001C0001F01B091200126B5A89B05C02F3F19F053
:1001D0000196A11DB11D3FBFBA2FA92F982F8827C7
:1001E000820F911DA11DB11DBC01CD0142E0660F22
:1001F000771F881F991F4A95D1F708958F929F9274
:10020000AF92BF92CF92DF92EF92FF926B017C018F
:100210000E94D9004B015C01C114D104E104F10436
:10022000F1F00E94D900DC01CB0188199909AA09D3
:10023000BB09883E9340A105B10570F321E0C21AC5
:10024000D108E108F10888EE880E83E0981EA11C11
:10025000B11CC114D104E104F10419F7DDCFFF9002
:10026000EF90DF90CF90BF90AF909F908F900895C8
:10027000CF92DF92EF92FF920F931F93CF93DF9372
:100280006C017A018B01C0E0D0E0CE15DF0581F072
:10029000D8016D918D01D601ED91FC910190F08115
:1002A000E02DC6010995892B11F02196EECF7E0134
:1002B000C701DF91CF911F910F91FF90EF90DF90D9
:1002C000CF900895089580E090E00895FC01538D4B
:1002D000448D252F30E0842F90E0821B930B541720
:1002E00010F0CF96089501970895FC01918D828DAD
:1002F000981761F0828DDF01A80FB11D5D968C917A
:10030000928D9F5F9F73928F90E008958FEF9FEF84
:100310000895FC01918D828D981731F0828DE80F40
:10032000F11D858D90E008958FEF9FEF0895FC01FA
:10033000918D228D892F90E0805C9F4F821B9109C7
:100340008F739927089581E291E00E94970121E03F
:10035000892B09F420E0822F0895FC01848DDF01B0
:10036000A80FB11DA35ABF4F2C91848D90E0019628
:100370008F739927848FA689B7892C93A089B18917
:100380008C91837080648C93938D848D981306C0B8
:100390000288F389E02D80818F7D80830895EF921C
:1003A000FF920F931F93CF93DF93EC0181E0888F2F
:1003B0009B8D8C8D981305C0E889F989808185FD16
:1003C00026C0F62E0B8D10E00F5F1F4F0F73112705
:1003D000E02E8C8DE8120CC00FB607FCFACFE8892E
:1003E000F989808185FFF5CFCE010E94AD01F1CF63
:1003F0008B8DFE01E80FF11DE35AFF4FF0829FB78E
:10040000F8940B8FEA89FB89808180620AC09FB7CC
:10041000F894EE89FF896083E889F9898081837087
:10042000806480839FBF81E090E0DF91CF911F9136
:100430000F91FF90EF900895CF93DF93EC01888D9B
:100440008823C9F0EA89FB89808185FD05C0A889D8
:10045000B9898C9186FD0FC00FB607FCF5CF80815E
:1004600085FFF2CFA889B9898C9185FFEDCFCE01A8
:100470000E94AD01E7CFDF91CF91089580E090E039
:10048000892B29F00E94A30181110C94000008958A
:10049000009769F0FC0101900020E9F73197AF0166
:1004A000481B590BBC0181E291E00C94380180E0BB
:1004B00090E008950E948B051F920F920FB60F9245
:1004C00011242F933F938F939F93AF93BF9380916A
:1004D000190190911A01A0911B01B0911C0130915A
:1004E000180123E0230F2D3720F40196A11DB11D23
:1004F00005C026E8230F0296A11DB11D2093180107
:100500008093190190931A01A0931B01B0931C01D1
:1005100080911D0190911E01A0911F01B0912001B9
:100520000196A11DB11D80931D0190931E01A09302
:100530001F01B0932001BF91AF919F918F913F9187
:100540002F910F900FBE0F901F9018951F920F9232
:100550000FB60F9211242F933F934F935F936F9396
:100560007F938F939F93AF93BF93EF93FF9381E21A
:1005700091E00E94AD01FF91EF91BF91AF919F91EA
:100580008F917F916F915F914F913F912F910F903C
:100590000FBE0F901F9018951F920F920FB60F92DB
:1005A00011242F938F939F93EF93FF93E091310149
:1005B000F09132018081E0913701F091380182FDA4
:1005C00012C0908180913A018F5F8F7320913B011F
:1005D000821751F0E0913A01F0E0EF5DFE4F958F08
:1005E00080933A0101C08081FF91EF919F918F919B
:1005F0002F910F900FBE0F901F901895CF92DF9202
:10060000EF92FF920F931F93E82FF92F05C001502F
:1006100011092109310961F1908196239417B9F3E9
:1006200005C0015011092109310911F1908196236A
:100630009413F7CFC12CD12CE12CF12C0AC08FEFF1
:10064000C81AD80AE80AF80A0C151D052E053F0538
:1006500079F080818623841791F36C2D7D2D8E2D6A
:100660009F2D1F910F91FF90EF90DF90CF900895F5
:1006700060E070E080E090E01F910F91FF90EF90BC
:10068000DF90CF900895CF93DF93109224011092C2
:10069000230188EE93E0A0E0B0E0809325019093E1
:1006A0002601A0932701B093280184E091E0909364
:1006B00022018093210185EC90E090932E0180939C
:1006C0002D0184EC90E09093300180932F0180EC19
:1006D00090E0909332018093310181EC90E090930F
:1006E00034018093330182EC90E090933601809343
:1006F000350186EC90E09093380180933701109299
:100700003A0110923B0110923C0110923D018BE0A6
:1007100090E09093C3018093C2018CE090E09093AD
:10072000C5018093C401E9EBF0E02491E5EAF0E033
:1007300084918823C1F090E0880F991FFC01E05755
:10074000FF4FC591D491FC01EA57FF4FA591B49199
:100750009FB7F8948881E22FE0958E2388838C914F
:10076000E823EC939FBF8091C4019091C501992724
:10077000FC01E255FF4F2491FC01E656FF4F8491A6
:10078000882399F090E0880F991FFC01E057FF4FF4
:10079000A591B491FC01EA57FF4F859194918FB7D1
:1007A000F894EC91E22BEC938FBF1092CE0187EE80
:1007B00093E0A0E0B0E08093CA019093CB01A093B6
:1007C000CC01B093CD01DF91CF910895CF93DF930A
:1007D000CDB7DEB7A1970FB6F894DEBF0FBECDBF81
:1007E000789484B5826084BD84B5816084BD85B50C
:1007F000826085BD85B5816085BD80916E00816018
:1008000080936E00109281008091810082608093BD
:1008100081008091810081608093810080918000BF
:100820008160809380008091B10084608093B100EA
:100830008091B00081608093B00080917A008460E4
:1008400080937A0080917A00826080937A00809110
:100850007A00816080937A0080917A00806880932A
:100860007A001092C100E0913101F091320182E0F2
:100870008083E0912D01F0912E011082E0912F01F3
:10088000F09130018FEC808310923901E0913501B5
:10089000F091360186E08083E0913301F0913401DC
:1008A000808180618083E0913301F0913401808107
:1008B00088608083E0913301F09134018081806809
:1008C0008083E0913301F091340180818F7D8083BA
:1008D00068EE73E080E090E00E94FE0093E0A92EB5
:1008E000B12C23E2822E912C3AE0432E512C612C24
:1008F000712C1092C6011092C7011092C80110927B
:10090000C90160E08091C4010E948C00C50101977B
:10091000F1F761E08091C4010E948C00C40101974D
:10092000F1F760E08091C4010E948C00C50101973D
:10093000F1F78091C2019091C3019927FC01E25522
:10094000FF4F6491FC01E656FF4FE491F0E0EE0F9B
:10095000FF1FE859FF4F8591949100EF19E422E0C1
:1009600030E0462F0E94FE02611571058105910558
:1009700049F0DC01CB010196A11DB11D9C01AD0127
:100980005F7003C020E030E0A9012093C6013093DE
:10099000C7014093C8015093C901A4E6B0E00E948A
:1009A0006B052AEF36E140E050E00E944C056901FA
:1009B0007A0169E170E080E090E00E94FE00F7FEBD
:1009C00020C06DE281E291E00E94CF01222733270F
:1009D000A9012C193D094E095F0919A2CE01819682
:1009E0007C01CA01B901A30192010E942A05605D40
:1009F000F70162937F01211531054105510589F702
:100A000015C0A701960119A2CE0181967C01CA01E9
:100A1000B901A30192010E942A05605DF70162936A
:100A20007F01211531054105510589F7C7010E9454
:100A3000480282E191E00E94480285E191E00E9433
:100A4000480268EE73E080E090E00E94FE000E94A1
:100A50003E024FCFA1E21A2EAA1BBB1BFD010DC007
:100A6000AA1FBB1FEE1FFF1FA217B307E407F5075E
:100A700020F0A21BB30BE40BF50B661F771F881F3A
:100A8000991F1A9469F760957095809590959B01D0
:100A9000AC01BD01CF010895052E97FB1EF4009413
:100AA0000E94630557FD07D00E942A0507FC03D06A
:100AB0004EF40C94630550954095309521953F4F29
:100AC0004F4F5F4F089590958095709561957F4F3A
:100AD0008F4F9F4F08950E947C05A59F900DB49F56
:100AE000900DA49F800D911D11240895EE0FFF1FFE
:100AF0000590F491E02D0994A29FB001B39FC0012D
:100B0000A39F700D811D1124911DB29F700D811D39
:100B10001124911D089581E090E0F8940C949005C3
:040B2000F894FFCF77
:100B240000000000CF01380166011C029701750125
:080B34008901636D000D0A0048
:00000001FF
