:100000000C948E000C94B6000C94B6000C94B600C0
:100010000C94B6000C94B6000C94B6000C94B60088
:100020000C94B6000C94B6000C94B6000C94B60078
:100030000C94B6000C94B6000C94B6000C94B60068
:100040000C945E040C94B6000C9407050C94E10427
:100050000C94B6000C94B6000C94B6000C94B60048
:100060000C94B6000C94B600202500204300250017
:1000700048756D69646974793A20004572726F72CF
:100080002072656164696E672068756D6964697462
:10009000792100C2B0430054656D7065726174755A
:1000A00072653A20004572726F72207265616469F0
:1000B0006E672074656D706572617475726521007C
:1000C00000000000240027002A0000000000250096
:1000D00028002B00000000080002010000030407B4
:1000E00000000000000000000000000023002600C7
:1000F00029000404040404040404020202020202AB
:1001000003030303030301020408102040800102DB
:1001100004081020010204081020120C11241FBE34
:10012000CFEFD8E0DEBFCDBF11E0A0E0B1E0EAE460
:10013000F0E202C005900D92AE38B107D9F722E087
:10014000AEE8B1E001C01D92AF38B207E1F710E0B0
:10015000CEE8D0E004C02197FE010E94120DCD38F8
:10016000D107C9F70E9495090C9423100C94000044
:10017000CF92DF92EF92FF920F931F93CF93DF9373
:100180006C017A018B01C0E0D0E0CE15DF0581F073
:10019000D8016D918D01D601ED91FC910190F08116
:1001A000E02DC6010995892B11F02196EECF7E0135
:1001B000C701DF91CF911F910F91FF90EF90DF90DA
:1001C000CF900895FC01538D448D252F30E0842F6E
:1001D00090E0821B930B541710F0CF96089501976F
:1001E0000895FC01918D828D981761F0828DDF0159
:1001F000A80FB11D5D968C91928D9F5F9F73928F1A
:1002000090E008958FEF9FEF0895FC01918D828D0E
:10021000981731F0828DE80FF11D858D90E00895DB
:100220008FEF9FEF0895FC01918D228D892F90E033
:10023000805C9F4F821B91098F73992708958FE9E6
:1002400091E00E94130121E0892B09F420E0822F24
:100250000895FC01848DDF01A80FB11DA35ABF4F83
:100260002C91848D90E001968F739927848FA689B5
:10027000B7892C93A089B1898C91837080648C9309
:10028000938D848D981306C00288F389E02D8081B8
:100290008F7D80830895EF92FF920F931F93CF93EA
:1002A000DF93EC0181E0888F9B8D8C8D981305C0C6
:1002B000E889F989808185FD26C0F62E0B8D10E036
:1002C0000F5F1F4F0F731127E02E8C8DE8120CC0AB
:1002D0000FB607FCFACFE889F989808185FFF5CF51
:1002E000CE010E942901F1CF8B8DFE01E80FF11D97
:1002F000E35AFF4FF0829FB7F8940B8FEA89FB898E
:10030000808180620AC09FB7F894EE89FF8960837C
:10031000E889F98980818370806480839FBF81E050
:1003200090E0DF91CF911F910F91FF90EF90089592
:10033000CF93DF93EC01888D8823C9F0EA89FB898C
:10034000808185FD05C0A889B9898C9186FD0FC083
:100350000FB607FCF5CF808185FFF2CFA889B98958
:100360008C9185FFEDCFCE010E942901E7CFDF916F
:10037000CF91089580E090E0892B29F00E941F0121
:1003800081110C9400000895089580E090E0089594
:100390000895CF93DF93EC0160E08E810E94DC062C
:1003A00061E08E810E94DC0660E08E810E94DC06A6
:1003B0008BE891E00197F1F7DF91CF9108950E94CA
:1003C0000F100F931F93CF93DF938C01EB0188E203
:1003D000DB011D928A95E9F7F801838194810E94DF
:1003E0001B0681E090E0A0E0B0E08C879D87AE879F
:1003F000BF87F80185819681A781B085888B998B0D
:10040000AA8BBB8B8CE090E0A0E0B0E08C8B9D8B46
:10041000AE8BBF8BBE01838194810E940406D801FC
:100420001396ED91FC91149783898C3069F038F420
:100430008B30A1F580E090E0A0EAB2E409C08531FC
:10044000C1F08631B1F02AC080E090E0AEEBB2E4BA
:10045000888F998FAA8FBB8F80E090E0A0EAB1E4EB
:100460008C8F9D8FAE8FBF8F80E090E0A0EAB0E4CC
:1004700010C080E090E0A8ECB2E4888F998FAA8F3A
:10048000BB8F1C8E1D8E1E8E1F8E8DEC9CECACECDB
:10049000BDE388A399A3AAA3BBA30CC0188E198E91
:1004A0001A8E1B8E1C8E1D8E1E8E1F8E18A219A2D8
:1004B0001AA21BA2DF91CF911F910F9108950F9364
:1004C0001F93CF93DF938C01EB0188E2DB011D9238
:1004D0008A95E9F7F801838194810E941B0681E0E7
:1004E00090E0A0E0B0E08C879D87AE87BF87F801E1
:1004F00085819681A781B085888B998BAA8BBB8BD0
:100500008DE090E0A0E0B0E08C8B9D8BAE8BBF8B3C
:10051000BE01838194810E940406D8011396ED9157
:10052000FC91149783898C30F1F0A0F48B3009F0A2
:1005300048C080E090E0A8E4B2E4888F998FAA8F49
:10054000BB8F1C8E1D8E1E8E1F8E80E090E0A0E063
:10055000B0E432C08531E1F0863199F580E090E079
:10056000AAEFB2E419C080E090E0A0E7B2E4888F7F
:10057000998FAA8FBB8F80E090E0A0EAB1EC8C8FBE
:100580009D8FAE8FBF8F80E090E0A0E0BFE314C0EE
:1005900080E090E0A0EAB2E4888F998FAA8FBB8FA9
:1005A00080E090E0A0E2B2EC8C8F9D8FAE8FBF8F89
:1005B0008DEC9CECACECBDE388A399A3AAA3BBA3F0
:1005C0000CC0188E198E1A8E1B8E1C8E1D8E1E8EC0
:1005D0001F8E18A219A21AA21BA2DF91CF911F9100
:1005E0000F910895CF92DF92EF92FF920F931F9396
:1005F000CF93DF93EB0124E2FB0111922A95E9F7F7
:1006000044E250E060E070E0488359836A837B8372
:10061000FC0145815681678170854C835D836E83C3
:100620007F834CE050E060E070E0488759876A873C
:100630007B872FB7F89440919B0150919C0160916A
:100640009D0170919E012FBF488B598B6A8B7B8BCC
:1006500003811481C8010E9445088823B9F1F8017B
:1006600086818B3098F18D30A0F08551823070F505
:10067000F8016081718176276727762780E090E016
:100680000E94CA0D2DEC3CEC4CEC5DE30E94580E30
:1006900021C0F801618170E080E090E00E94CC0D03
:1006A0002DEC3CEC4CEC5DE30E94580E6B017C01A0
:1006B000F801608170E080E090E00E94CC0D9B0129
:1006C000AC01C701B6010E94280D04C060E070E0D3
:1006D00080EC9FE76C8B7D8B8E8B9F8B81E0DF9115
:1006E000CF911F910F91FF90EF90DF90CF900895E1
:1006F0008F929F92AF92BF92EF92FF921F93CF93F0
:10070000DF93EB0124E2FB0111922A95E9F744E221
:1007100050E060E070E0488359836A837B83FC018A
:1007200045815681678170854C835D836E837F83AD
:100730004DE050E060E070E0488759876A877B872A
:100740002FB7F89440919B0150919C0160919D01BD
:1007500070919E012FBF488B598B6A8B7B8BE380F6
:10076000F480C7010E944508882309F46BC0F70193
:1007700086818C3009F445C018F48B30C9F062C012
:100780008551823008F05EC0F7011281612F6F77CA
:1007900070E0762F66278381682B80E090E00E94CE
:1007A000CA0D2DEC3CEC4CEC5DE30E94580E46C0AB
:1007B000F701628170E080E090E00E94CA0D4B0179
:1007C0005C01F701138117FF0AC09B01AC0160E0D7
:1007D00070E080E89FEB0E94270D4B015C01612FC8
:1007E0006F7070E080E090E00E94CC0D2DEC3CEC4E
:1007F0004CEC5DE30E94580EA50194010E94280D67
:1008000025C0F701128163816F7070E080E090E095
:100810000E94CC0D2DEC3CEC4CEC5DE30E94580E9C
:100820004B015C01612F70E080E090E00E94CA0DF6
:100830009B01AC01C501B4010E94280D17FF06C041
:10084000905804C060E070E080EC9FE76C8B7D8B7B
:100850008E8B9F8B81E0DF91CF911F91FF90EF9066
:10086000BF90AF909F908F9008950C94860F0C943A
:10087000860F3FB7F8948091970190919801A091CD
:100880009901B0919A0126B5A89B05C02F3F19F098
:100890000196A11DB11D3FBFBA2FA92F982F882700
:1008A000820F911DA11DB11DBC01CD0142E0660F5B
:1008B000771F881F991F4A95D1F708951F920F92AD
:1008C0000FB60F9211242F933F938F939F93AF9363
:1008D000BF9380919B0190919C01A0919D01B0914B
:1008E0009E013091960123E0230F2D3720F40196CD
:1008F000A11DB11D05C026E8230F0296A11DB11D43
:100900002093960180939B0190939C01A0939D015D
:10091000B0939E018091970190919801A0919901C7
:10092000B0919A010196A11DB11D809397019093FA
:100930009801A0939901B0939A01BF91AF919F91B3
:100940008F913F912F910F900FBE0F901F90189590
:10095000EF92FF920F931F93CF93DF938C017B0154
:10096000C0E0D0E0F701EC0FFD1F6491662361F059
:10097000D801ED91FC910190F081E02DC80109951D
:10098000892B11F02196EECFCE01DF91CF911F91EF
:100990000F91FF90EF9008956115710579F0FB01BB
:1009A00001900020E9F73197AF01461B570BDC019E
:1009B000ED91FC910280F381E02D099480E090E0BC
:1009C00008951F920F920FB60F9211242F933F9309
:1009D0004F935F936F937F938F939F93AF93BF9347
:1009E000EF93FF938FE991E00E942901FF91EF912E
:1009F000BF91AF919F918F917F916F915F914F9137
:100A00003F912F910F900FBE0F901F9018951F923E
:100A10000F920FB60F9211242F938F939F93EF9302
:100A2000FF93E091AF01F091B0018081E091B501B9
:100A3000F091B60182FD12C090818091B8018F5F64
:100A40008F732091B901821751F0E091B801F0E065
:100A5000E156FE4F958F8093B80101C08081FF91D0
:100A6000EF919F918F912F910F900FBE0F901F903C
:100A70001895CF92DF92EF92FF920F931F93CF932F
:100A8000DF936C017C0187E0E80EF11CC0E0D0E050
:100A9000062F10E0B8010C2E02C0759567950A94D8
:100AA000E2F76170F70181917F010E94DC062196D7
:100AB000C430D10579F7C601DF91CF911F910F9115
:100AC000FF90EF90DF90CF900C94C901CF92DF920E
:100AD000EF92FF920F931F93CF93DF93EC01F62ECB
:100AE000642F8C810E94DC068D818F3F19F060E0BD
:100AF0000E94DC068F850F2D10E084FF25C06E015B
:100B000087E0C80ED11CE12CF12CB8010E2C02C0DC
:100B1000759567950A94E2F76170F60181916F010E
:100B20000E94DC06FFEFEF1AFF0A88E0E816F104E6
:100B300061F7CE01DF91CF911F910F91FF90EF9060
:100B4000DF90CF900C94C901B80184E0759567954A
:100B50008A95E1F7CE010E9439056F2DCE01DF9114
:100B6000CF911F910F91FF90EF90DF90CF900C9459
:100B7000390541E00E94660581E090E008950895FE
:100B80000895CF92DF92EF92FF921F93CF93DF935E
:100B9000EC011F81662311F0912F01C090E02885A0
:100BA00030E0220F331F28513F4FA0E0B0E0F901A1
:100BB00045915491FA0180818123AD0160E070E09C
:100BC00089130FC01196CD84DE84EF84F8884C150C
:100BD0005D056E057F0558F33FEF2FEF8FEF9FEF19
:100BE00003C03A2F252FCB01632F722FDF91CF91B6
:100BF0001F91FF90EF90DF90CF90089540E0682F15
:100C00008CE392E00C946605FB01DC0153968C9119
:100C10008C3041F038F48B3029F480E492E4AFE07A
:100C2000B0E004C080E894E8AEE1B0E084A395A30E
:100C3000A6A3B7A30895CF93DF93EB01FC018389AB
:100C40008C3089F038F48B30C1F44BE050E061E730
:100C500071E017C0853161F0863179F44BE050E0E6
:100C600063E871E00EC04BE050E067E771E009C057
:100C70004BE050E06DE771E004C04BE050E069E804
:100C800071E0CE010E9414101B86DF91CF91089570
:100C90004F925F926F927F928F929F92AF92BF928C
:100CA000CF92DF92EF92FF920F931F93CF93DF9338
:100CB000CDB7DEB7A1970FB6F894DEBF0FBECDBF9C
:100CC0008C016A017B0177FF2FC0DC01ED91FC9163
:100CD0000190F081E02D6DE209955C012227332718
:100CE000A9012C193D094E095F0919A2FE01B1960F
:100CF0007F019AE0492E512C612C712CCA01B90157
:100D0000A30192010E94C60C605DD7016E937D0124
:100D1000211531054105510589F7BD01C8010E9422
:100D2000CC048A0D9B1D1EC09A01AB0119A2FE01C5
:100D3000B1967F018AE0882E912CA12CB12CCA019A
:100D4000B901A50194010E94C60C605DD7016E93A4
:100D50007D01211531054105510589F7BD01C80106
:100D60000E94CC04A1960FB6F894DEBF0FBECDBF93
:100D7000DF91CF911F910F91FF90EF90DF90CF9077
:100D8000BF90AF909F908F907F906F905F904F90AB
:100D90000895CF93DF93BC018FE991E00E94A804EE
:100DA000EC0161E671E08FE991E00E94CC048C0FC8
:100DB0009D1FDF91CF91089590E0FC01EC52FF4F11
:100DC0002491FC01EA5FFE4F3491FC01EE50FF4F8D
:100DD000E491EE2309F43CC0222339F1233091F051
:100DE00038F42130A9F0223001F584B58F7D12C08E
:100DF000273091F02830A1F02430B9F480918000A0
:100E00008F7D03C0809180008F77809380000DC01C
:100E100084B58F7784BD09C08091B0008F7703C0FF
:100E20008091B0008F7D8093B000F0E0EE0FFF1F47
:100E3000E653FF4FA591B4919FB7F894611104C098
:100E40008C913095382302C0EC913E2B3C939FBF90
:100E50000895CF93DF9390E0FC01EA5FFE4F249169
:100E6000FC01EE50FF4F8491882361F190E0880FE0
:100E7000991FFC01E054FF4FC591D491FC01E6534A
:100E8000FF4FA591B491611109C09FB7F894888173
:100E9000209582238883EC912E230BC0623061F46D
:100EA0009FB7F8948881322F309583238883EC9103
:100EB0002E2B2C939FBF06C08FB7F894E8812E2B62
:100EC00028838FBFDF91CF910895CF93DF93823036
:100ED00028F090914B02986090934B0280934F02C0
:100EE0001092500280E48093510280E1809352027C
:100EF00080E58093530261E0809140020E942907BF
:100F0000809141028F3F19F061E00E94290761E062
:100F1000809142020E942907CCE3D2E09E012C532B
:100F2000324080914B0284FD03C084E090E002C017
:100F300088E090E02196281739072CF461E08E8133
:100F40000E942907EBCF8BE39DE00197F1F760E06A
:100F5000809140020E94DC0660E0809142020E9483
:100F6000DC06809141028F3F19F060E00E94DC06B0
:100F700080914B0284FD20C063E08CE392E00E94EC
:100F80003905CBE4D6E4CE010197F1F763E08CE3B9
:100F900092E00E9439052197F1F763E08CE392E03B
:100FA0000E94390583E592E00197F1F762E08CE356
:100FB00092E00E94390515C080620E94FE058BE414
:100FC00096E40197F1F780914B0280620E94FE0542
:100FD00083E592E00197F1F780914B0280620E94D5
:100FE000FE0580914B0280620E94FE0584E08093A2
:100FF0004C028CE00E94FE0581E00E94FE058BE31E
:101000009FE10197F1F782E080934D0286E0DF9146
:10101000CF910C94FE058F929F92AF92BF92CF9288
:10102000DF92EF92FF926B017C010E9439044B0129
:101030005C01C114D104E104F104F1F00E9439040F
:10104000DC01CB0188199909AA09BB09883E9340A4
:10105000A105B10570F321E0C21AD108E108F10839
:1010600088EE880E83E0981EA11CB11CC114D10427
:10107000E104F10419F7DDCFFF90EF90DF90CF90FE
:10108000BF90AF909F908F9008958F929F92AF9254
:10109000BF92CF92DF92EF92FF920F931F93CF9365
:1010A000DF93CDB7DEB7C054D1400FB6F894DEBFA2
:1010B0000FBECDBF2FB7F89440919B0150919C017A
:1010C00060919D0170919E012FBFFC0101851285E9
:1010D000238534856A017B01C01AD10AE20AF30A2A
:1010E000E0EDCE16E7E0DE06E104F10418F4FC01C1
:1010F0008189C2C08C01FC01418752876387748754
:101100001482138212821182108262E085810E9411
:10111000290761E070E080E090E00E940B0861E048
:10112000F80185810E94290760E0F80185810E940D
:10113000DC06F80186818551823028F48BE291E14A
:101140000197F1F706C064E170E080E090E00E9452
:101150000B0862E0F80185810E942907F801828965
:1011600090E08230910538F0880F991F880F991F01
:1011700005970197F1F7F89460E0C8010E94C10556
:101180006F3F7F4F8F4F9F4F21F4F801118A789462
:1011900044C061E0C8010E94C1056F3F7F4F8F4F7F
:1011A0009F4F99F3CE0101967C015E019FEBA91A36
:1011B0009EEFB90A670160E0C8010E94C105F6010F
:1011C000608371838283938361E0C8010E94C105BB
:1011D000F6016483758386839783F8E0CF0ED11C74
:1011E000CA14DB0441F7789420E030E0F7018080F6
:1011F0009180A280B3804481558166817781FFEF21
:101200008F169F06AF06BF0631F04F3F8FEF58078E
:101210006807780721F4F801118A80E02DC0F901F0
:1012200083E0F595E7958A95E1F7E00FF11F80815E
:10123000880F84169506A606B70608F48160808399
:101240002F5F3F4FF8E0EF0EF11C2832310571F6A9
:10125000F801248130E04081818190E0840F911D6C
:101260004281840F911D4381840F911D9927281776
:10127000390789F681E0818BC05CDE4F0FB6F894A8
:10128000DEBF0FBECDBFDF91CF911F910F91FF90B9
:10129000EF90DF90CF90BF90AF909F908F90089588
:1012A000CF92DF92EF92FF920F931F93E82FF92FC7
:1012B00005C0015011092109310961F1908196237E
:1012C0009417B9F305C0015011092109310911F131
:1012D000908196239413F7CFC12CD12CE12CF12CC3
:1012E0000AC08FEFC81AD80AE80AF80A0C151D05BB
:1012F0002E053F0579F080818623841791F36C2DAC
:101300007D2D8E2D9F2D1F910F91FF90EF90DF90DF
:10131000CF90089560E070E080E090E01F910F9121
:10132000FF90EF90DF90CF900895CF93DF93CDB7EC
:10133000DEB7E1970FB6F894DEBF0FBECDBF78944D
:1013400084B5826084BD84B5816084BD85B58260CA
:1013500085BD85B5816085BD80916E00816080937B
:101360006E001092810080918100826080938100E4
:1013700080918100816080938100809180008160F4
:10138000809380008091B10084608093B10080914F
:10139000B00081608093B00080917A008460809377
:1013A0007A0080917A00826080937A0080917A003E
:1013B000816080937A0080917A00806880937A00BF
:1013C0001092C100E091AF01F091B00182E0808302
:1013D000E091AB01F091AC011082E091AD01F09190
:1013E000AE018FEC80831092B701E091B301F091D0
:1013F000B40186E08083E091B101F091B201808177
:1014000080618083E091B101F091B20180818860B8
:101410008083E091B101F091B20180818068808386
:10142000E091B101F091B20180818F7D808362E013
:10143000809159020E9429072FB7F89480919B014F
:1014400090919C01A0919D01B0919E012FBF805D64
:101450009740A109B10980935D0290935E02A09329
:101460005F02B093600287E38093660280916A0214
:101470008BA786E391E09AA789A780916B02909150
:101480006C029DA78CA780916D0290916E02A09135
:101490006F02B09170028EA79FA7A8ABB9ABBE0137
:1014A0006F5F7F4FCE0189960E945F028091730229
:1014B0008BA788E291E09AA789A780917402909106
:1014C00075029DA78CA78091760290917702A091DA
:1014D0007802B09179028EA79FA7A8ABB9ABBE01E5
:1014E0006F5F7F4FCE0189960E94E10182E00E94EA
:1014F00065076EE471E08CE392E00E94CC0493E017
:10150000E92EF12C23E2222E312C3AEF832E36E104
:10151000932EA12CB12C48E2C42E41E0D42E10927F
:10152000820210928302109284021092850260E07F
:10153000809180020E94DC06C7010197F1F761E00B
:10154000809180020E94DC06C1010197F1F760E002
:10155000809180020E94DC06C7010197F1F780911B
:101560007E0290917F029927FC01EA5FFE4F649111
:10157000FC01EE50FF4FE491F0E0EE0FFF1FE85149
:10158000FF4F8591949100EF19E422E030E0462F5F
:101590000E945009611571058105910549F0DC0132
:1015A000CB010196A11DB11D9C01AD015F7003C06F
:1015B00020E030E0A901209382023093830240931F
:1015C000840250938502A4E6B0E00E94070DA501B5
:1015D00094010E94E80C29013A0169E170E080E081
:1015E00090E00E940B084092920150929301609209
:1015F000940170929501B301A2018FE991E00E94DC
:1016000048066EE571E08FE991E00E94CC0461E646
:1016100071E08FE991E00E94CC0460ED77E080E01A
:1016200090E00E940B0880916A028BA786E391E00C
:101630009AA789A780916B0290916C029DA78CA7B5
:1016400080916D0290916E02A0916F02B091700234
:101650008EA79FA7A8ABB9ABBE016F5F7F4FCE012E
:1016600089960E9478036D897E898F89988D9B0168
:10167000AC010E94C50E882319F085EA90E01CC0D9
:1016800067E970E08FE991E00E94A8046D897E8986
:101690008F89988D0E94940DAB01BC0140938E01FF
:1016A00050938F0160939001709391018FE991E0C5
:1016B0000E94480683E990E00E94C9068091730267
:1016C0008BA7DAA6C9A680917402909175029DA796
:1016D0008CA78091760290917702A0917802B091C8
:1016E00079028EA79FA7A8ABB9ABBE016F5F7F4FF2
:1016F000CE0189960E94F2026D897E898F89988D2C
:101700009B01AC010E94C50E882319F08BE790E085
:1017100014C060E770E08FE991E00E94A8046D8931
:101720007E898F89988D0E94940DAB01BC018FE951
:1017300091E00E9448068EE690E00E94C90681E092
:101740000E94FE058BE39FE10197F1F7E1E08091B4
:101750004F028111E0E0E195F0E0E45CFD4F848907
:1017600080680E94FE0564E671E08CE392E00E94CE
:10177000CC0440918E0150918F0160919001709145
:1017800091018CE392E00E9448066BE670E08CE3E6
:1017900092E00E94A80467E671E08CE392E00E9468
:1017A000CC046BE671E08CE392E00E94CC044091A3
:1017B0008E0150918F0160919001709191018CE3A5
:1017C00092E00E94480668E670E08CE392E00E9496
:1017D000A804E0914F02E23010F4E15001C0E1E0D2
:1017E000F0E0E45CFD4F848980680E94FE056EE6AF
:1017F00071E08CE392E00E94CC0440919201509100
:10180000930160919401709195018CE392E00E94A4
:1018100048066EE571E08CE392E00E94CC040E94E1
:10182000BA017DCECF93DF93EFE9F1E0138212820C
:1018300088EE93E0A0E0B0E084839583A683B7832D
:101840008AE091E09183808385EC90E0958784879E
:1018500084EC90E09787868780EC90E0918B808B7A
:1018600081EC90E0938B828B82EC90E0958B848B63
:1018700086EC90E0978B868B118E128E138E148ED1
:10188000CAE7D2E08CE090E09D838C838DE090E00D
:101890009F838E8360E08CE00E94290761E08E8147
:1018A0000E942907188A87EE93E0A0E0B0E08C87B9
:1018B0009D87AE87BF87A4E5B2E082E015968C9342
:1018C00015978BE016968C931697E8E0F1E0E4917B
:1018D0001796EC931797E4EFF0E0E4911896EC93E9
:1018E000189740E85EE360E070E01D964D935D93CD
:1018F0006D937C93509753968C93539726E331E0E6
:1019000055963C932E9354970A2E1B2E58961C9254
:101910000E92112457974FEF5FEFBA0159964D93EE
:101920005D936D937C935C9728E231E05E963C93E7
:101930002E935D970A2E1B2E91961C920E921124C7
:10194000909792964D935D936D937C939597ECE36E
:10195000F2E0138212822CE131E03183208396E0A1
:1019600094839FEF958397E0968398E0978399E01F
:1019700090879AE09187828713861486158616864B
:10198000178681E0DF91CF910C946507A1E21A2EB2
:10199000AA1BBB1BFD010DC0AA1FBB1FEE1FFF1F13
:1019A000A217B307E407F50720F0A21BB30BE40B63
:1019B000F50B661F771F881F991F1A9469F76095AA
:1019C0007095809590959B01AC01BD01CF01089564
:1019D000052E97FB1EF400940E94FF0C57FD07D0C4
:1019E0000E94C60C07FC03D04EF40C94FF0C5095DB
:1019F0004095309521953F4F4F4F5F4F08959095FB
:101A00008095709561957F4F8F4F9F4F08950E94ED
:101A1000180DA59F900DB49F900DA49F800D911D52
:101A200011240895EE0FFF1F0590F491E02D099405
:101A3000A29FB001B39FC001A39F700D811D11240F
:101A4000911DB29F700D811D1124911D0895505854
:101A5000BB27AA270E943F0D0C941E0E0E94100E59
:101A600038F00E94170E20F039F49F3F19F426F445
:101A70000C940D0E0EF4E095E7FB0C94070EE92F85
:101A80000E942F0E58F3BA17620773078407950751
:101A900020F079F4A6F50C94510E0EF4E0950B2E7F
:101AA000BA2FA02D0B01B90190010C01CA01A001B0
:101AB0001124FF27591B99F0593F50F4503E68F10B
:101AC0001A16F040A22F232F342F4427585FF3CF4C
:101AD000469537952795A795F0405395C9F77EF41D
:101AE0001F16BA0B620B730B840BBAF09150A1F066
:101AF000FF0FBB1F661F771F881FC2F70EC0BA0FEC
:101B0000621F731F841F48F4879577956795B79573
:101B1000F7959E3F08F0B0CF9395880F08F099276E
:101B2000EE0F9795879508950E949B0D6894B111CB
:101B30000C94520E08950E94370E88F09F5798F02B
:101B4000B92F9927B751B0F0E1F0660F771F881FC2
:101B5000991F1AF0BA95C9F714C0B13091F00E94DC
:101B6000510EB1E008950C94510E672F782F8827FD
:101B7000B85F39F0B93FCCF3869577956795B39503
:101B8000D9F73EF490958095709561957F4F8F4F72
:101B90009F4F0895E89409C097FB3EF49095809577
:101BA000709561957F4F8F4F9F4F9923A9F0F92F23
:101BB00096E9BB279395F695879577956795B795A1
:101BC000F111F8CFFAF4BB0F11F460FF1BC06F5F87
:101BD0007F4F8F4F9F4F16C0882311F096E911C099
:101BE000772321F09EE8872F762F05C0662371F0BA
:101BF00096E8862F70E060E02AF09A95660F771FCE
:101C0000881FDAF7880F9695879597F9089597F9C1
:101C10009F6780E870E060E008959FEF80EC089592
:101C200000240A94161617061806090608950024BB
:101C30000A9412161306140605060895092E039435
:101C4000000C11F4882352F0BB0F40F4BF2B11F4A9
:101C500060FF04C06F5F7F4F8F4F9F4F089557FD08
:101C60009058440F551F59F05F3F71F04795880F0A
:101C700097FB991F61F09F3F79F0879508951216A1
:101C800013061406551FF2CF4695F1DF08C016164D
:101C900017061806991FF1CF8695710561050894FE
:101CA0000895E894BB2766277727CB0197F9089515
:101CB0000E946B0E0C941E0E0E94100E38F00E94B3
:101CC000170E20F0952311F00C94070E0C940D0EB6
:101CD00011240C94520E0E942F0E70F3959FC1F3A5
:101CE000950F50E0551F629FF001729FBB27F00DCA
:101CF000B11D639FAA27F00DB11DAA1F649F66271F
:101D0000B00DA11D661F829F2227B00DA11D621F6D
:101D1000739FB00DA11D621F839FA00D611D221F27
:101D2000749F3327A00D611D231F849F600D211D0B
:101D3000822F762F6A2F11249F5750409AF0F1F08E
:101D400088234AF0EE0FFF1FBB1F661F771F881FF7
:101D500091505040A9F79E3F510580F00C94070E1A
:101D60000C94520E5F3FE4F3983ED4F3869577953A
:101D70006795B795F795E7959F5FC1F7FE2B880F9D
:101D8000911D9695879597F908950E94CA0E880B24
:101D9000990B0895990F0008550FAA0BE0E8FEEF84
:101DA00016161706E807F907C0F012161306E4071F
:101DB000F50798F0621B730B840B950B39F40A2618
:101DC00061F0232B242B252B21F408950A2609F4F6
:101DD000A140A6958FEF811D811D08950F931F933C
:101DE000CF93DF938230910510F482E090E0E09190
:101DF0008D02F0918E0220E030E0A0E0B0E030975C
:101E000019F1408151810281138148175907C8F0A7
:101E10008417950769F4109731F012960C93129776
:101E200013961C9327C000938D0210938E0222C03C
:101E30002115310519F04217530718F49A01BD0115
:101E4000EF01DF01F801DBCF21153105F9F0281B87
:101E5000390B2430310580F48A819B81611571052D
:101E600021F0FB019383828304C090938E028093C0
:101E70008D02FE01329644C0FE01E20FF31F8193F2
:101E8000919322503109398328833AC020918B02E3
:101E900030918C02232B41F42091020130910301F7
:101EA00030938C0220938B0220910001309101012C
:101EB0002115310541F42DB73EB7409104015091F1
:101EC0000501241B350BE0918B02F0918C02E21787
:101ED000F307A0F42E1B3F0B2817390778F0AC014D
:101EE0004E5F5F4F2417350748F04E0F5F1F50932A
:101EF0008C0240938B028193919302C0E0E0F0E06A
:101F0000CF01DF91CF911F910F910895CF93DF9370
:101F1000009709F481C0FC01329713821282A091CC
:101F20008D02B0918E02109781F420813181820F51
:101F3000931F20918B0230918C022817390751F59D
:101F4000F0938C02E0938B0267C0ED0120E030E05B
:101F5000CE17DF0740F44A815B819E014115510590
:101F6000F1F0EA01F5CFD383C28340815181840F20
:101F7000951FC817D90759F488819981840F951F37
:101F80000296918380838A819B819383828321152A
:101F9000310529F4F0938E02E0938D023DC0E901F2
:101FA000FB83EA8349915991C40FD51FEC17FD07B4
:101FB00061F480819181840F951F0296E9019983D4
:101FC0008883828193819B838A83E0E0F0E012968C
:101FD0008D919C911397009719F0FD01DC01F7CFCB
:101FE0008D919C9111979D012E5F3F4F820F931F02
:101FF00020918B0230918C022817390769F43097B1
:1020000029F410928E0210928D0202C01382128265
:10201000B0938C02A0938B02DF91CF91089581E061
:1020200090E0F8940C942310FB01DC0141505040E7
:1020300048F001900D920020C9F701C01D92415057
:0A2040005040E0F70895F894FFCF38
:10204A0000008F028000000000004B01B800E2008F
:10205A0098011301F100050100000000B905B8005C
:10206A00C501C40100000000BF053504C801F20221
:10207A00E10100000000C0053704C80178035F02CF
:10208A000000000000000000C801DF01DF01496E06
:10209A00697469616C6974696E672E2E2E00636DAE
:1020AA00000D0A00543D0020202000483D00443D18
:1020BA0000444854313100444854313200444854B1
:0E20CA003231004448543232004448543F0042
:00000001FF
