:100000000C948E000C94B6000C94B6000C94B600C0
:100010000C94B6000C94B6000C94B6000C94B60088
:100020000C94B6000C94B6000C94B6000C94B60078
:100030000C94B6000C94B6000C94B6000C94B60068
:100040000C9486030C94B6000C9478040C9452041F
:100050000C94B6000C94B6000C94B6000C94B60048
:100060000C94B6000C94B600250048756D6964695F
:1000700074793A20004572726F722072656164690A
:100080006E672068756D69646974792100C2B04338
:100090000054656D70657261747572653A20004533
:1000A00072726F722072656164696E672074656D2B
:1000B000706572617475726521002500204300002F
:1000C000000000240027002A00000000002500286E
:1000D000002B0000000008000201000003040700DC
:1000E000000000000000000000000023002600299E
:1000F00000040404040404040402020202020203D1
:1001000003030303030102040810204080010204DA
:10011000081020010204081020008C0D11241FBEBD
:10012000CFEFD8E0DEBFCDBF11E0A0E0B1E0EAE55F
:10013000F4E202C005900D92AE3AB107D9F722E081
:10014000AEEAB1E001C01D92A53BB207E1F710E0B5
:10015000CEE8D0E004C02197FE010E949E0ECD386B
:10016000D107C9F70E94740A0C942B120C9400005A
:10017000CF92DF92EF92FF920F931F93CF93DF9373
:100180006C017A018B01C0E0D0E0CE15DF0581F073
:10019000D8016D918D01D601ED91FC910190F08116
:1001A000E02DC6010995892B11F02196EECF7E0135
:1001B000C701DF91CF911F910F91FF90EF90DF90DA
:1001C000CF900895089580E090E008950895CF932A
:1001D000DF93EC0160E08E810E94BB0761E08E81BD
:1001E0000E94BB0760E08E810E94BB078BE891E014
:1001F0000197F1F7DF91CF9108950E9417128FEBCD
:1002000091E00E94A00521E0892B09F420E0822FD3
:1002100008950F931F93CF93DF938C01EB0188E236
:10022000DB011D928A95E9F7F801838194810E9490
:10023000D80581E090E0A0E0B0E08C879D87AE8794
:10024000BF87F80185819681A781B085888B998BBE
:10025000AA8BBB8B8CE090E0A0E0B0E08C8B9D8BF8
:10026000AE8BBF8BBE01838194810E94C105D801F2
:100270001396ED91FC91149783898C3069F038F4D2
:100280008B30A1F580E090E0A0EAB2E409C08531AE
:10029000C1F08631B1F02AC080E090E0AEEBB2E46C
:1002A000888F998FAA8FBB8F80E090E0A0EAB1E49D
:1002B0008C8F9D8FAE8FBF8F80E090E0A0EAB0E47E
:1002C00010C080E090E0A8ECB2E4888F998FAA8FEC
:1002D000BB8F1C8E1D8E1E8E1F8E8DEC9CECACEC8D
:1002E000BDE388A399A3AAA3BBA30CC0188E198E43
:1002F0001A8E1B8E1C8E1D8E1E8E1F8E18A219A28A
:100300001AA21BA2DF91CF911F910F9108950F9315
:100310001F93CF93DF938C01EB0188E2DB011D92E9
:100320008A95E9F7F801838194810E94D80581E0DC
:1003300090E0A0E0B0E08C879D87AE87BF87F80192
:1003400085819681A781B085888B998BAA8BBB8B81
:100350008DE090E0A0E0B0E08C8B9D8BAE8BBF8BEE
:10036000BE01838194810E94C105D8011396ED914D
:10037000FC91149783898C30F1F0A0F48B3009F054
:1003800048C080E090E0A8E4B2E4888F998FAA8FFB
:10039000BB8F1C8E1D8E1E8E1F8E80E090E0A0E015
:1003A000B0E432C08531E1F0863199F580E090E02B
:1003B000AAEFB2E419C080E090E0A0E7B2E4888F31
:1003C000998FAA8FBB8F80E090E0A0EAB1EC8C8F70
:1003D0009D8FAE8FBF8F80E090E0A0E0BFE314C0A0
:1003E00080E090E0A0EAB2E4888F998FAA8FBB8F5B
:1003F00080E090E0A0E2B2EC8C8F9D8FAE8FBF8F3B
:100400008DEC9CECACECBDE388A399A3AAA3BBA3A1
:100410000CC0188E198E1A8E1B8E1C8E1D8E1E8E71
:100420001F8E18A219A21AA21BA2DF91CF911F91B1
:100430000F910895CF92DF92EF92FF920F931F9347
:10044000CF93DF93EB0124E2FB0111922A95E9F7A8
:1004500044E250E060E070E0488359836A837B8324
:10046000FC0145815681678170854C835D836E8375
:100470007F834CE050E060E070E0488759876A87EE
:100480007B872FB7F8944091BB015091BC016091DC
:10049000BD017091BE012FBF488B598B6A8B7B8B3E
:1004A00003811481C8010E9424098823B9F1F8014D
:1004B00086818B3098F18D30A0F08551823070F5B7
:1004C000F8016081718176276727762780E090E0C8
:1004D0000E94CD0F2DEC3CEC4CEC5DE30E948410AF
:1004E00021C0F801618170E080E090E00E94CF0FB0
:1004F0002DEC3CEC4CEC5DE30E9484106B017C0124
:10050000F801608170E080E090E00E94CF0F9B01D5
:10051000AC01C701B6010E94B40E04C060E070E0F7
:1005200080EC9FE76C8B7D8B8E8B9F8B81E0DF91C6
:10053000CF911F910F91FF90EF90DF90CF90089592
:100540008F929F92AF92BF92EF92FF921F93CF93A1
:10055000DF93EB0124E2FB0111922A95E9F744E2D3
:1005600050E060E070E0488359836A837B83FC013C
:1005700045815681678170854C835D836E837F835F
:100580004DE050E060E070E0488759876A877B87DC
:100590002FB7F8944091BB015091BC016091BD010F
:1005A0007091BE012FBF488B598B6A8B7B8BE38088
:1005B000F480C7010E942409882309F46BC0F70165
:1005C00086818C3009F445C018F48B30C9F062C0C4
:1005D0008551823008F05EC0F7011281612F6F777C
:1005E00070E0762F66278381682B80E090E00E9480
:1005F000CD0F2DEC3CEC4CEC5DE30E94841046C02A
:10060000F701628170E080E090E00E94CD0F4B0125
:100610005C01F701138117FF0AC09B01AC0160E088
:1006200070E080E89FEB0E94B30E4B015C01612FEC
:100630006F7070E080E090E00E94CF0F2DEC3CECFA
:100640004CEC5DE30E948410A50194010E94B40E5D
:1006500025C0F701128163816F7070E080E090E047
:100660000E94CF0F2DEC3CEC4CEC5DE30E9484101B
:100670004B015C01612F70E080E090E00E94CD0FA3
:100680009B01AC01C501B4010E94B40E17FF06C066
:10069000905804C060E070E080EC9FE76C8B7D8B2D
:1006A0008E8B9F8B81E0DF91CF911F91FF90EF9018
:1006B000BF90AF909F908F9008950C948E110C94E2
:1006C0008E113FB7F8948091B7019091B801A09135
:1006D000B901B091BA0126B5A89B05C02F3F19F00A
:1006E0000196A11DB11D3FBFBA2FA92F982F8827B2
:1006F000820F911DA11DB11DBC01CD0142E0660F0D
:10070000771F881F991F4A95D1F708951F920F925E
:100710000FB60F9211242F933F938F939F93AF9314
:10072000BF938091BB019091BC01A091BD01B0919C
:10073000BE013091B60123E0230F2D3720F401963E
:10074000A11DB11D05C026E8230F0296A11DB11DF4
:100750002093B6018093BB019093BC01A093BD018F
:10076000B093BE018091B7019091B801A091B901F9
:10077000B091BA010196A11DB11D8093B70190936C
:10078000B801A093B901B093BA01BF91AF919F9105
:100790008F913F912F910F900FBE0F901F90189542
:1007A000EF92FF920F931F93CF93DF938C017B0106
:1007B000C0E0D0E0F701EC0FFD1F6491662361F00B
:1007C000D801ED91FC910190F081E02DC8010995CF
:1007D000892B11F02196EECFCE01DF91CF911F91A1
:1007E0000F91FF90EF9008956115710579F0FB016D
:1007F00001900020E9F73197AF01461B570BDC0150
:10080000ED91FC910280F381E02D099480E090E06D
:1008100008958F929F92AF92BF92EF92FF920F93A3
:100820001F93CF93DF93CDB7DEB7A1970FB6F894A0
:10083000DEBF0FBECDBF7C01FA01CB0119A2223071
:1008400008F42AE08E010F5D1F4F822E912CA12CFF
:10085000B12CBF01A50194010E94520EF901CA01F9
:10086000015011096A3014F4605D01C0695CD8015F
:100870006C93232B242B252B61F7B801C7010E9411
:10088000F403A1960FB6F894DEBF0FBECDBFDF9183
:10089000CF911F910F91FF90EF90BF90AF909F90DD
:1008A0008F9008951F920F920FB60F9211242F93DD
:1008B0003F934F935F936F937F938F939F93AF93E8
:1008C000BF93EF93FF938FEB91E00E942A07FF9174
:1008D000EF91BF91AF919F918F917F916F915F91B8
:1008E0004F913F912F910F900FBE0F901F90189531
:1008F0001F920F920FB60F9211242F938F939F93F5
:10090000EF93FF93E091CF01F091D0018081E091CE
:10091000D501F091D60182FD12C090818091D8015D
:100920008F5F8F732091D901821751F0E091D80128
:10093000F0E0E154FE4F958F8093D80101C0808193
:10094000FF91EF919F918F912F910F900FBE0F907C
:100950001F901895CF92DF92EF92FF920F931F9303
:10096000CF93DF936C017C0187E0E80EF11CC0E0BF
:10097000D0E0062F10E0B8010C2E02C075956795E7
:100980000A94E2F76170F70181917F010E94BB0731
:100990002196C430D10579F7C601DF91CF911F911F
:1009A0000F91FF90EF90DF90CF900C94E700CF92E3
:1009B000DF92EF92FF920F931F93CF93DF93EC019F
:1009C000F62E642F8C810E94BB078D818F3F19F01A
:1009D00060E00E94BB078F850F2D10E084FF25C0CB
:1009E0006E0187E0C80ED11CE12CF12CB8010E2C51
:1009F00002C0759567950A94E2F76170F6018191DE
:100A00006F010E94BB07FFEFEF1AFF0A88E0E816AC
:100A1000F10461F7CE01DF91CF911F910F91FF900B
:100A2000EF90DF90CF900C94E700B80184E07595CB
:100A300067958A95E1F7CE010E94AA046F2DCE0139
:100A4000DF91CF911F910F91FF90EF90DF90CF90AA
:100A50000C94AA0441E00E94D70481E090E008953C
:100A600008950895CF92DF92EF92FF921F93CF9354
:100A7000DF93EC011F81662311F0912F01C090E0FC
:100A8000288530E0220F331F29513F4FA0E0B0E00E
:100A9000F90145915491FA0180818123AD0160E013
:100AA00070E089130FC01196CD84DE84EF84F8883E
:100AB0004C155D056E057F0558F33FEF2FEF8FEF67
:100AC0009FEF03C03A2F252FCB01632F722FDF91A9
:100AD000CF911F91FF90EF90DF90CF900895FC0190
:100AE000538D448D252F30E0842F90E0821B930B93
:100AF000541710F0CF96089501970895FC01918D39
:100B0000828D981761F0828DDF01A80FB11D5D966F
:100B10008C91928D9F5F9F73928F90E008958FEFDD
:100B20009FEF0895FC01918D828D981731F0828D91
:100B3000E80FF11D858D90E008958FEF9FEF0895E8
:100B4000FC01918D228D892F90E0805C9F4F821B4C
:100B500091098F739927089580E090E0892B29F0FF
:100B60000E94FF0081110C940000089540E0682F5E
:100B70008CE592E00C94D704BC018CE592E00C94D7
:100B8000F403FB01DC0153968C918C3041F038F476
:100B90008B3029F480E492E4AFE0B0E004C080E858
:100BA00094E8AEE1B0E084A395A3A6A3B7A308950B
:100BB000CF93DF93EB01FC0183898C3089F038F40B
:100BC0008B30C1F44BE050E061E871E017C0853133
:100BD00061F0863179F44BE050E063E971E00EC0DA
:100BE0004BE050E067E871E009C04BE050E06DE891
:100BF00071E004C04BE050E069E971E0CE010E9471
:100C00001C121B86DF91CF910895CF93DF93BC0117
:100C10008FEB91E00E94D003EC016EE971E08FEB65
:100C200091E00E94F4038C0F9D1FDF91CF910895F6
:100C3000CF92DF92EF92FF920F931F93CF93DF93A8
:100C400077FF21C06A017B01EC01E881F981019005
:100C5000F081E02D6DE209958C0144275527BA01FA
:100C60004C195D096E097F092AE0CE010E94090432
:100C7000800F911FDF91CF911F910F91FF90EF9007
:100C8000DF90CF9008952AE0DF91CF911F910F91CF
:100C9000FF90EF90DF90CF900C9409048F929F9279
:100CA000AF92BF92CF92DF92EF92FF920F931F937A
:100CB000CF93DF936B017C01142F9B01AC010E9449
:100CC000F110882319F061EA71E027C0460157014D
:100CD000E894B7F82FEF3FEF4FE75FE7C501B401A6
:100CE0000E94F11081110DC02FEF3FEF4FE75FE73A
:100CF000C501B4010E94200F18161CF465EA71E0CA
:100D00000CC02FEF3FEF4FE75FE4C701B6010E9431
:100D10007F10181694F469EA71E08CE592E0DF9197
:100D2000CF911F910F91FF90EF90DF90CF90BF90E8
:100D3000AF909F908F900C94F4032FEF3FEF4FE70D
:100D40005FECC701B6010E94200F87FDE4CF20E0D1
:100D500030E0A901C701B6010E94200F87FF0DC036
:100D600041E06DE28CE592E00E94D704F7FAF0943E
:100D7000F7F8F094C1E0D0E002C0C0E0D0E000E0BD
:100D800060E070E080E09FE3101741F020E030E089
:100D900040E251E40E94250F0F5FF6CFA7019601B4
:100DA0000E94B40E6B017C010E949E0F4B015C01FE
:100DB0002AE0AB01BC018CE592E00E940904C80F57
:100DC000D91F1123C9F1C501B4010E94CD0F9B01A8
:100DD000AC01C701B6010E94B30E6B017C0141E07A
:100DE0006EE28CE592E00E94D704219620E030E08C
:100DF00040E251E4C701B6010E9484104B015C013E
:100E00000E949E0F6B01E12CF12C2AE0B701A60194
:100E10008CE592E00E940904C80FD91FC701B601F2
:100E20000E94CD0F9B01AC01C501B4010E94B30E1D
:100E30006B017C011150D1F6CE01DF91CF911F9152
:100E40000F91FF90EF90DF90CF90BF90AF909F9069
:100E50008F900895FC01848DDF01A80FB11DA35A66
:100E6000BF4F2C91848D90E001968F739927848FCA
:100E7000A689B7892C93A089B1898C9183708064ED
:100E80008C93938D848D981306C00288F389E02D8E
:100E900080818F7D80830895EF92FF920F931F933F
:100EA000CF93DF93EC0181E0888F9B8D8C8D98131D
:100EB00005C0E889F989808185FD26C0F62E0B8D55
:100EC00010E00F5F1F4F0F731127E02E8C8DE8127B
:100ED0000CC00FB607FCFACFE889F989808185FF3D
:100EE000F5CFCE010E942A07F1CF8B8DFE01E80FCE
:100EF000F11DE35AFF4FF0829FB7F8940B8FEA89F8
:100F0000FB89808180620AC09FB7F894EE89FF89CF
:100F10006083E889F98980818370806480839FBFC2
:100F200081E090E0DF91CF911F910F91FF90EF90C2
:100F30000895CF93DF93EC01888D8823C9F0EA8967
:100F4000FB89808185FD05C0A889B9898C9186FDC2
:100F50000FC00FB607FCF5CF808185FFF2CFA889BF
:100F6000B9898C9185FFEDCFCE010E942A07E7CF8A
:100F7000DF91CF91089590E0FC01ED52FF4F249155
:100F8000FC01EB5FFE4F3491FC01EF50FF4FE49109
:100F9000EE2309F43CC0222339F1233091F038F4D8
:100FA0002130A9F0223001F584B58F7D12C02730A1
:100FB00091F02830A1F02430B9F4809180008F7D29
:100FC00003C0809180008F77809380000DC084B52E
:100FD0008F7784BD09C08091B0008F7703C0809166
:100FE000B0008F7D8093B000F0E0EE0FFF1FE7535D
:100FF000FF4FA591B4919FB7F894611104C08C91F3
:101000003095382302C0EC913E2B3C939FBF08954E
:10101000CF93DF9390E0FC01EB5FFE4F2491FC0146
:10102000EF50FF4F8491882361F190E0880F991F62
:10103000FC01E154FF4FC591D491FC01E753FF4FF0
:10104000A591B491611109C09FB7F894888120954A
:1010500082238883EC912E230BC0623061F49FB70A
:10106000F8948881322F309583238883EC912E2B3E
:101070002C939FBF06C08FB7F894E8812E2B28834E
:101080008FBFDF91CF910895CF93DF93823028F007
:1010900090916B02986090936B0280936F02109214
:1010A000700280E48093710280E18093720280E597
:1010B0008093730261E0809160020E940808809131
:1010C00061028F3F19F061E00E94080861E08091A1
:1010D00062020E940808CCE5D2E09E012C55324005
:1010E00080916B0284FD03C084E090E002C088E040
:1010F00090E02196281739072CF461E08E810E9438
:101100000808EBCF8BE39DE00197F1F760E0809159
:1011100060020E94BB0760E0809162020E94BB07F0
:10112000809161028F3F19F060E00E94BB078091BF
:101130006B0284FD20C063E08CE592E00E94AA046B
:10114000CBE4D6E4CE010197F1F763E08CE592E0C1
:101150000E94AA042197F1F763E08CE592E00E94D7
:10116000AA0483E592E00197F1F762E08CE592E052
:101170000E94AA0415C080620E94B6058BE496E422
:101180000197F1F780916B0280620E94B60583E5BA
:1011900092E00197F1F780916B0280620E94B605A0
:1011A00080916B0280620E94B60584E080936C029D
:1011B0008CE00E94B60581E00E94B6058BE39FE1BA
:1011C0000197F1F782E080936D0286E0DF91CF9185
:1011D0000C94B6058F929F92AF92BF92CF92DF92FE
:1011E000EF92FF926B017C010E9461034B015C0155
:1011F000C114D104E104F104F1F00E946103DC01A7
:10120000CB0188199909AA09BB09883E9340A10519
:10121000B10570F321E0C21AD108E108F10888EEA7
:10122000880E83E0981EA11CB11CC114D104E104F6
:10123000F10419F7DDCFFF90EF90DF90CF90BF90D2
:10124000AF909F908F9008958F929F92AF92BF9290
:10125000CF92DF92EF92FF920F931F93CF93DF9382
:10126000CDB7DEB7C054D1400FB6F894DEBF0FBE85
:10127000CDBF2FB7F8944091BB015091BC01609154
:10128000BD017091BE012FBFFC0101851285238530
:1012900034856A017B01C01AD10AE20AF30AE0ED43
:1012A000CE16E7E0DE06E104F10418F4FC018189C2
:1012B000C2C08C01FC014187528763877487148206
:1012C000138212821182108262E085810E940808D6
:1012D00061E070E080E090E00E94EA0861E0F801DF
:1012E00085810E94080860E0F80185810E94BB07A3
:1012F000F80186818551823028F48BE291E10197D3
:10130000F1F706C064E170E080E090E00E94EA0836
:1013100062E0F80185810E940808F801828990E066
:101320008230910538F0880F991F880F991F059713
:101330000197F1F7F89460E0C8010E9432056F3F11
:101340007F4F8F4F9F4F21F4F801118A789444C04A
:1013500061E0C8010E9432056F3F7F4F8F4F9F4F62
:1013600099F3CE0101967C015E019FEBA91A9EEFD5
:10137000B90A670160E0C8010E943205F601608386
:1013800071838283938361E0C8010E943205F60174
:101390006483758386839783F8E0CF0ED11CCA14CB
:1013A000DB0441F7789420E030E0F7018080918001
:1013B000A280B3804481558166817781FFEF8F16CB
:1013C0009F06AF06BF0631F04F3F8FEF5807680703
:1013D000780721F4F801118A80E02DC0F90183E03B
:1013E000F595E7958A95E1F7E00FF11F8081880F69
:1013F00084169506A606B70608F4816080832F5FE1
:101400003F4FF8E0EF0EF11C2832310571F6F8017C
:10141000248130E04081818190E0840F911D4281E0
:10142000840F911D4381840F911D99272817390737
:1014300089F681E0818BC05CDE4F0FB6F894DEBF89
:101440000FBECDBFDF91CF911F910F91FF90EF9015
:10145000DF90CF90BF90AF909F908F900895CF92E4
:10146000DF92EF92FF920F931F93E82FF92F05C0A1
:10147000015011092109310961F1908196239417D6
:10148000B9F305C0015011092109310911F1908109
:1014900096239413F7CFC12CD12CE12CF12C0AC048
:1014A0008FEFC81AD80AE80AF80A0C151D052E0590
:1014B0003F0579F080818623841791F36C2D7D2D73
:1014C0008E2D9F2D1F910F91FF90EF90DF90CF9069
:1014D000089560E070E080E090E01F910F91FF9030
:1014E000EF90DF90CF900895CF93DF93CDB7DEB725
:1014F000E1970FB6F894DEBF0FBECDBF789484B5E8
:10150000826084BD84B5816084BD85B5826085BDFF
:1015100085B5816085BD80916E00816080936E008D
:10152000109281008091810082608093810080917F
:101530008100816080938100809180008160809330
:1015400080008091B10084608093B1008091B000F0
:1015500081608093B00080917A00846080937A00EB
:1015600080917A00826080937A0080917A00816015
:1015700080937A0080917A00806880937A0010923C
:10158000C10061E081E00E94080861E083E00E9400
:10159000080861E081E00E94BB0761E083E00E94EF
:1015A000BB0762E0809179020E9408082FB7F89487
:1015B0008091BB019091BC01A091BD01B091BE0191
:1015C0002FBF805D9740A109B10980937D02909360
:1015D0007E02A0937F02B093800287E3809386020D
:1015E00080918A028BA78CE291E09AA789A78091CB
:1015F0008B0290918C029DA78CA780918D02909177
:101600008E02A0918F02B09190028EA79FA7A8ABE7
:10161000B9ABBE016F5F7F4FCE0189960E948701F3
:10162000809193028BA788E491E09AA789A7809183
:101630009402909195029DA78CA78091960290911B
:101640009702A0919802B09199028EA79FA7A8AB8C
:10165000B9ABBE016F5F7F4FCE0189960E94090131
:1016600082E00E9444088CE591E00E94BC0593E072
:10167000E92EF12C2AEF422E26E1522E612C712CFC
:1016800032E0232E312C48E0C42E47E0D42E68EC03
:1016900070E080E090E00E94EA081092A6021092AA
:1016A000A7021092A8021092A90260E08091A40201
:1016B0000E94BB07C7010197F1F761E08091A40286
:1016C0000E94BB0783E290E00197F1F760E0809110
:1016D000A4020E94BB07C7010197F1F78091A20203
:1016E0009091A3029927FC01EB5FFE4F6491FC01EE
:1016F000EF50FF4FE491F0E0EE0FFF1FE951FF4F75
:101700008591949100EF19E422E030E0462F0E9489
:101710002F0A611571058105910551F0DC01CB019E
:101720000196A11DB11D4C015D012FE0B22203C045
:10173000812C912C54018092A6029092A702A09233
:10174000A802B092A90269E170E080E090E00E94F6
:10175000EA08A4E6B0E0A50194010E94930EA3015B
:1017600092010E94740ECA01B9010E94CF0F2BEDA5
:101770003FE049E45DE30E94841020E030E048EC63
:1017800052E40E94250F20E030E04AE754E40E9432
:1017900084109B01AC0160919A0270919B02809130
:1017A0009C0290919D020E94B30E6093B2017093CF
:1017B000B3018093B4019093B50180918A028BA705
:1017C0008CE291E09AA789A780918B0290918C027C
:1017D0009DA78CA780918D0290918E02A0918F027F
:1017E000B09190028EA79FA7A8ABB9ABBE016F5F67
:1017F0007F4FCE0189960E94A0026D897E898F89D4
:10180000988D9B01AC010E94F110882319F08FE99B
:1018100090E01CC061E970E08FEB91E00E94D00382
:101820006D897E898F89988D0E94970FAB01BC01CD
:101830004093AE015093AF016093B0017093B1013A
:101840008FEB91E00E9418068DE890E00E9405065B
:10185000809193028BA788E491E09AA789A7809151
:101860009402909195029DA78CA7809196029091E9
:101870009702A0919802B09199028EA79FA7A8AB5A
:10188000B9ABBE016F5F7F4FCE0189960E941A02ED
:101890006D897E898F89988D9B01AC010E94F11022
:1018A000882319F085E790E014C06AE670E08FEBBA
:1018B00091E00E94D0036D897E898F89988D0E9466
:1018C000970FAB01BC018FEB91E00E94180688E6F0
:1018D00090E00E94050660E081E00E94BB0768EC92
:1018E00070E080E090E00E94EA0890E490937C0031
:1018F00080917A00806480937A0080917A0086FDDE
:10190000FCCF609178008091790070E0782B072EF1
:10191000000C880B990B0E94CF0F20E030E040EEC6
:1019200052E40E94B30E20E030E844E554E40E9403
:10193000250F20E030E040E85FE30E94B30E20E096
:1019400030E048EC52E40E9484104B015C0120E03E
:1019500030E0A9010E947F10181624F0B7FAB09465
:10196000B7F8B0948092000190920101A092020118
:10197000B092030161E081E00E94BB0720E030E00B
:1019800040EC5FE36091B2017091B3018091B401CA
:101990009091B5010E947F1018168CF58091AE01D0
:1019A0009091AF01A091B001B091B1014797A1050D
:1019B000B1052CF520E030E048E452E4C501B40163
:1019C0000E947F1087FD09C061E083E00E94BB0791
:1019D000D092B002C092AF0212C020E030E048E4E2
:1019E00052E4C501B4010E94200F87FF08C060E0E7
:1019F00083E00E94BB073092B0022092AF0281E0E8
:101A00000E94B6058BE39FE10197F1F7E1E0809139
:101A10006F028111E0E0E195F0E0E45AFD4F848926
:101A200080680E94B6058CE691E00E94BC0540915A
:101A3000AE015091AF016091B0017091B1018CE5A0
:101A400092E00E9418066CEB70E08CE592E00E9438
:101A5000D0038FE691E00E94BC0583E791E00E94ED
:101A6000BC054091AE015091AF016091B001709101
:101A7000B1018CE592E00E9418066AEB70E08CE5FB
:101A800092E00E94D003E0916F02E23010F4E15046
:101A900001C0E1E0F0E0E45AFD4F848980680E94D3
:101AA000B60586E791E00E94BC056091B201709195
:101AB000B3018091B4019091B50142E00E944E06BD
:101AC00089E791E00E94BC058BE791E00E94BC058C
:101AD00060910001709101018091020190910301D8
:101AE00042E00E944E068FE791E00E94BC0500E0B4
:101AF00010E08091AF029091B0020817190748F4E6
:101B000068EE73E080E090E00E94EA080F5F1F4FEC
:101B1000F0CF0E94AC05BBCDCF93DF93EFEBF1E0AC
:101B20001382128288EE93E0A0E0B0E08483958374
:101B3000A683B7838EE091E09183808385EC90E06B
:101B40009587848784EC90E09787868780EC90E087
:101B5000918B808B81EC90E0938B828B82EC90E078
:101B6000958B848B86EC90E0978B868B118E128EF2
:101B7000138E148E88E097E09093B0028093AF02AA
:101B8000CEE9D2E084E090E09D838C8385E090E014
:101B90009F838E8360E084E00E94080861E08E816C
:101BA0000E940808188A87EE93E0A0E0B0E08C87D6
:101BB0009D87AE87BF8788E894E8A5E0B1E480936D
:101BC0009A0290939B02A0939C02B0939D02A4E77B
:101BD000B2E082E015968C9315978BE016968C9365
:101BE0001697E7E0F1E0E4911796EC931797E3EF8F
:101BF000F0E0E4911896EC93189740E85EE360E01B
:101C000070E01D964D935D936D937C935097539622
:101C10008C9353972CE231E055963C932E93549736
:101C20000A2E1B2E58961C920E92112457974FEF96
:101C30005FEFBA0159964D935D936D937C935C97DA
:101C400028E431E05E963C932E935D970A2E1B2E7E
:101C500091961C920E921124909792964D935D93BB
:101C60006D937C939597ECE5F2E01382128220E26B
:101C700031E03183208397E094839FEF958398E050
:101C8000968399E097839AE0908781878CE082879A
:101C90001386148615861686178681E0DF91CF910C
:101CA0000C944408A1E21A2EAA1BBB1BFD010DC017
:101CB000AA1FBB1FEE1FFF1FA217B307E407F507FC
:101CC00020F0A21BB30BE40BF50B661F771F881FD8
:101CD000991F1A9469F760957095809590959B016E
:101CE000AC01BD01CF010895052E97FB1EF40094B1
:101CF0000E948B0E57FD07D00E94520E07FC03D0A6
:101D00004EF40C948B0E50954095309521953F4F95
:101D10004F4F5F4F089590958095709561957F4FD7
:101D20008F4F9F4F08950E94A40EA59F900DB49FC2
:101D3000900DA49F800D911D11240895EE0FFF1F9B
:101D40000590F491E02D0994A29FB001B39FC001CA
:101D5000A39F700D811D1124911DB29F700D811DD7
:101D60001124911D08955058BB27AA270E94CB0E1D
:101D70000C9445100E94371038F00E943E1020F05D
:101D800039F49F3F19F426F40C9434100EF4E095C6
:101D9000E7FB0C942E10E92F0E94561058F3BA1747
:101DA000620773078407950720F079F4A6F50C9471
:101DB00078100EF4E0950B2EBA2FA02D0B01B9016F
:101DC00090010C01CA01A0011124FF27591B99F0B1
:101DD000593F50F4503E68F11A16F040A22F232FBD
:101DE000342F4427585FF3CF469537952795A7950D
:101DF000F0405395C9F77EF41F16BA0B620B730BB4
:101E0000840BBAF09150A1F0FF0FBB1F661F771F24
:101E1000881FC2F70EC0BA0F621F731F841F48F4D9
:101E2000879577956795B795F7959E3F08F0B0CF62
:101E30009395880F08F09927EE0F97958795089549
:101E40000E940A1008F481E008950E94390F0C9452
:101E500045100E943E1058F00E94371040F029F4BF
:101E60005F3F29F00C942E1051110C9479100C94B2
:101E700034100E94561068F39923B1F3552391F35F
:101E8000951B550BBB27AA2762177307840738F0E9
:101E90009F5F5F4F220F331F441FAA1FA9F335D046
:101EA0000E2E3AF0E0E832D091505040E695001CFA
:101EB000CAF72BD0FE2F29D0660F771F881FBB1FB4
:101EC000261737074807AB07B0E809F0BB0B802D92
:101ED000BF01FF2793585F4F3AF09E3F510578F0BE
:101EE0000C942E100C9479105F3FE4F3983ED4F3D9
:101EF000869577956795B795F7959F5FC9F7880F92
:101F0000911D9695879597F90895E1E0660F771FE3
:101F1000881FBB1F621773078407BA0720F0621B74
:101F2000730B840BBA0BEE1F88F7E09508950E949F
:101F30009E0F6894B1110C94791008950E945E1060
:101F400088F09F5798F0B92F9927B751B0F0E1F07A
:101F5000660F771F881F991F1AF0BA95C9F714C02A
:101F6000B13091F00E947810B1E008950C9478108F
:101F7000672F782F8827B85F39F0B93FCCF3869563
:101F800077956795B395D9F73EF4909580957095C0
:101F900061957F4F8F4F9F4F0895E89409C097FB3D
:101FA0003EF490958095709561957F4F8F4F9F4F30
:101FB0009923A9F0F92F96E9BB279395F695879574
:101FC00077956795B795F111F8CFFAF4BB0F11F437
:101FD00060FF1BC06F5F7F4F8F4F9F4F16C08823DE
:101FE00011F096E911C0772321F09EE8872F762F14
:101FF00005C0662371F096E8862F70E060E02AF055
:102000009A95660F771F881FDAF7880F9695879540
:1020100097F90895990F0008550FAA0BE0E8FEEF15
:1020200016161706E807F907C0F012161306E4079C
:10203000F50798F0621B730B840B950B39F40A2695
:1020400061F0232B242B252B21F408950A2609F473
:10205000A140A6958FEF811D811D089597F99F6777
:1020600080E870E060E008959FEF80EC0895002420
:102070000A941616170618060906089500240A94ED
:1020800012161306140605060895092E0394000C73
:1020900011F4882352F0BB0F40F4BF2B11F460FF02
:1020A00004C06F5F7F4F8F4F9F4F089557FD90582B
:1020B000440F551F59F05F3F71F04795880F97FB0C
:1020C000991F61F09F3F79F08795089512161306C6
:1020D0001406551FF2CF4695F1DF08C016161706F5
:1020E0001806991FF1CF869571056105089408952A
:1020F000E894BB2766277727CB0197F908950E94BC
:102100000A1008F48FEF08950E9497100C94451060
:102110000E94371038F00E943E1020F0952311F0F5
:102120000C942E100C94341011240C9479100E94ED
:10213000561070F3959FC1F3950F50E0551F629FA5
:10214000F001729FBB27F00DB11D639FAA27F00D10
:10215000B11DAA1F649F6627B00DA11D661F829F37
:102160002227B00DA11D621F739FB00DA11D621F1C
:10217000839FA00D611D221F749F3327A00D611D39
:10218000231F849F600D211D822F762F6A2F11241B
:102190009F5750409AF0F1F088234AF0EE0FFF1F4E
:1021A000BB1F661F771F881F91505040A9F79E3FA5
:1021B000510580F00C942E100C9479105F3FE4F3DD
:1021C000983ED4F3869577956795B795F795E795FB
:1021D0009F5FC1F7FE2B880F911D9695879597F904
:1021E00008950E940A10880B990B08950F931F936E
:1021F000CF93DF938230910510F482E090E0E0917C
:10220000B302F091B40220E030E0A0E0B0E03097FB
:1022100019F1408151810281138148175907C8F093
:102220008417950769F4109731F012960C93129762
:1022300013961C9327C00093B3021093B40222C0DC
:102240002115310519F04217530718F49A01BD0101
:10225000EF01DF01F801DBCF21153105F9F0281B73
:10226000390B2430310580F48A819B816115710519
:1022700021F0FB019383828304C09093B402809386
:10228000B302FE01329644C0FE01E20FF31F8193B8
:10229000919322503109398328833AC02091B102A9
:1022A0003091B202232B41F42091060130910701B5
:1022B0003093B2022093B1022091040130910501C4
:1022C0002115310541F42DB73EB7409108015091D9
:1022D0000901241B350BE091B102F091B202E21723
:1022E000F307A0F42E1B3F0B2817390778F0AC0139
:1022F0004E5F5F4F2417350748F04E0F5F1F509316
:10230000B2024093B1028193919302C0E0E0F0E009
:10231000CF01DF91CF911F910F910895CF93DF935C
:10232000009709F481C0FC01329713821282A091B8
:10233000B302B091B402109781F420813181820FF1
:10234000931F2091B1023091B2022817390751F53D
:10235000F093B202E093B10267C0ED0120E030E0FB
:10236000CE17DF0740F44A815B819E01411551057C
:10237000F1F0EA01F5CFD383C28340815181840F0C
:10238000951FC817D90759F488819981840F951F23
:102390000296918380838A819B8193838283211516
:1023A000310529F4F093B402E093B3023DC0E90192
:1023B000FB83EA8349915991C40FD51FEC17FD07A0
:1023C00061F480819181840F951F0296E9019983C0
:1023D0008883828193819B838A83E0E0F0E0129678
:1023E0008D919C911397009719F0FD01DC01F7CFB7
:1023F0008D919C9111979D012E5F3F4F820F931FEE
:102400002091B1023091B2022817390769F4309750
:1024100029F41092B4021092B30202C01382128205
:10242000B093B202A093B102DF91CF91089581E001
:1024300090E0F8940C942B12FB01DC0141505040C9
:1024400048F001900D920020C9F701C01D92415043
:0A2450005040E0F70895F894FFCF24
:10245A00000080440000B5028000000000004C0724
:10246A00B8006F059907A0057E05920500000000D7
:10247A002A05B800E300E2000000000031055F030E
:10248A00E600A00287010000000000000000E6004C
:10249A00FD00FD000000000030055D03E6001A02A1
:1024AA0009010000003E7B142E3E0807496E69743C
:1024BA0069616C6974696E672E2E2E00543D002086
:1024CA00202000483D00563D004C0020533D002589
:1024DA00004448543131004448543132004448548D
:1024EA003231004448543232004448543F000D0A05
:0E24FA00006E616E00696E66006F766600000F
:00000001FF
